{
  "_format": "hh-sol-artifact-1",
  "contractName": "PaymentEscrow",
  "sourceName": "contracts/PaymentEscrow.sol",
  "abi": [
    {
      "inputs": [],
      "stateMutability": "nonpayable",
      "type": "constructor"
    },
    {
      "inputs": [],
      "name": "EnforcedPause",
      "type": "error"
    },
    {
      "inputs": [],
      "name": "ExpectedPause",
      "type": "error"
    },
    {
      "inputs": [
        {
          "internalType": "address",
          "name": "owner",
          "type": "address"
        }
      ],
      "name": "OwnableInvalidOwner",
      "type": "error"
    },
    {
      "inputs": [
        {
          "internalType": "address",
          "name": "account",
          "type": "address"
        }
      ],
      "name": "OwnableUnauthorizedAccount",
      "type": "error"
    },
    {
      "inputs": [],
      "name": "ReentrancyGuardReentrantCall",
      "type": "error"
    },
    {
      "anonymous": false,
      "inputs": [
        {
          "indexed": true,
          "internalType": "address",
          "name": "arbiter",
          "type": "address"
        },
        {
          "indexed": false,
          "internalType": "bool",
          "name": "authorized",
          "type": "bool"
        }
      ],
      "name": "ArbiterAuthorized",
      "type": "event"
    },
    {
      "anonymous": false,
      "inputs": [
        {
          "indexed": true,
          "internalType": "uint256",
          "name": "escrowId",
          "type": "uint256"
        },
        {
          "indexed": true,
          "internalType": "address",
          "name": "arbiter",
          "type": "address"
        },
        {
          "indexed": false,
          "internalType": "enum PaymentEscrow.EscrowStatus",
          "name": "resolution",
          "type": "uint8"
        }
      ],
      "name": "DisputeResolved",
      "type": "event"
    },
    {
      "anonymous": false,
      "inputs": [
        {
          "indexed": true,
          "internalType": "uint256",
          "name": "escrowId",
          "type": "uint256"
        },
        {
          "indexed": true,
          "internalType": "address",
          "name": "initiator",
          "type": "address"
        }
      ],
      "name": "EscrowCancelled",
      "type": "event"
    },
    {
      "anonymous": false,
      "inputs": [
        {
          "indexed": true,
          "internalType": "uint256",
          "name": "escrowId",
          "type": "uint256"
        },
        {
          "indexed": true,
          "internalType": "address",
          "name": "buyer",
          "type": "address"
        },
        {
          "indexed": true,
          "internalType": "address",
          "name": "seller",
          "type": "address"
        },
        {
          "indexed": false,
          "internalType": "uint256",
          "name": "amount",
          "type": "uint256"
        },
        {
          "indexed": false,
          "internalType": "string",
          "name": "productId",
          "type": "string"
        }
      ],
      "name": "EscrowCreated",
      "type": "event"
    },
    {
      "anonymous": false,
      "inputs": [
        {
          "indexed": true,
          "internalType": "uint256",
          "name": "escrowId",
          "type": "uint256"
        },
        {
          "indexed": true,
          "internalType": "address",
          "name": "initiator",
          "type": "address"
        },
        {
          "indexed": false,
          "internalType": "string",
          "name": "reason",
          "type": "string"
        }
      ],
      "name": "EscrowDisputed",
      "type": "event"
    },
    {
      "anonymous": false,
      "inputs": [
        {
          "indexed": true,
          "internalType": "uint256",
          "name": "escrowId",
          "type": "uint256"
        },
        {
          "indexed": true,
          "internalType": "address",
          "name": "buyer",
          "type": "address"
        },
        {
          "indexed": false,
          "internalType": "uint256",
          "name": "amount",
          "type": "uint256"
        }
      ],
      "name": "EscrowRefunded",
      "type": "event"
    },
    {
      "anonymous": false,
      "inputs": [
        {
          "indexed": true,
          "internalType": "uint256",
          "name": "escrowId",
          "type": "uint256"
        },
        {
          "indexed": true,
          "internalType": "address",
          "name": "seller",
          "type": "address"
        },
        {
          "indexed": false,
          "internalType": "uint256",
          "name": "amount",
          "type": "uint256"
        },
        {
          "indexed": false,
          "internalType": "uint256",
          "name": "fee",
          "type": "uint256"
        }
      ],
      "name": "EscrowReleased",
      "type": "event"
    },
    {
      "anonymous": false,
      "inputs": [
        {
          "indexed": true,
          "internalType": "address",
          "name": "previousOwner",
          "type": "address"
        },
        {
          "indexed": true,
          "internalType": "address",
          "name": "newOwner",
          "type": "address"
        }
      ],
      "name": "OwnershipTransferred",
      "type": "event"
    },
    {
      "anonymous": false,
      "inputs": [
        {
          "indexed": false,
          "internalType": "address",
          "name": "account",
          "type": "address"
        }
      ],
      "name": "Paused",
      "type": "event"
    },
    {
      "anonymous": false,
      "inputs": [
        {
          "indexed": false,
          "internalType": "address",
          "name": "account",
          "type": "address"
        }
      ],
      "name": "Unpaused",
      "type": "event"
    },
    {
      "inputs": [
        {
          "internalType": "address",
          "name": "",
          "type": "address"
        }
      ],
      "name": "authorizedArbiters",
      "outputs": [
        {
          "internalType": "bool",
          "name": "",
          "type": "bool"
        }
      ],
      "stateMutability": "view",
      "type": "function"
    },
    {
      "inputs": [
        {
          "internalType": "uint256",
          "name": "_escrowId",
          "type": "uint256"
        }
      ],
      "name": "autoReleaseEscrow",
      "outputs": [],
      "stateMutability": "nonpayable",
      "type": "function"
    },
    {
      "inputs": [],
      "name": "autoReleaseTimeout",
      "outputs": [
        {
          "internalType": "uint256",
          "name": "",
          "type": "uint256"
        }
      ],
      "stateMutability": "view",
      "type": "function"
    },
    {
      "inputs": [
        {
          "internalType": "address",
          "name": "",
          "type": "address"
        },
        {
          "internalType": "uint256",
          "name": "",
          "type": "uint256"
        }
      ],
      "name": "buyerEscrows",
      "outputs": [
        {
          "internalType": "uint256",
          "name": "",
          "type": "uint256"
        }
      ],
      "stateMutability": "view",
      "type": "function"
    },
    {
      "inputs": [
        {
          "internalType": "uint256",
          "name": "_escrowId",
          "type": "uint256"
        }
      ],
      "name": "cancelEscrow",
      "outputs": [],
      "stateMutability": "nonpayable",
      "type": "function"
    },
    {
      "inputs": [
        {
          "internalType": "address payable",
          "name": "_seller",
          "type": "address"
        },
        {
          "internalType": "string",
          "name": "_productId",
          "type": "string"
        },
        {
          "internalType": "string",
          "name": "_notes",
          "type": "string"
        },
        {
          "internalType": "address",
          "name": "_arbiter",
          "type": "address"
        }
      ],
      "name": "createEscrow",
      "outputs": [
        {
          "internalType": "uint256",
          "name": "",
          "type": "uint256"
        }
      ],
      "stateMutability": "payable",
      "type": "function"
    },
    {
      "inputs": [],
      "name": "escrowFeeRate",
      "outputs": [
        {
          "internalType": "uint256",
          "name": "",
          "type": "uint256"
        }
      ],
      "stateMutability": "view",
      "type": "function"
    },
    {
      "inputs": [
        {
          "internalType": "uint256",
          "name": "",
          "type": "uint256"
        }
      ],
      "name": "escrows",
      "outputs": [
        {
          "internalType": "uint256",
          "name": "escrowId",
          "type": "uint256"
        },
        {
          "internalType": "address payable",
          "name": "buyer",
          "type": "address"
        },
        {
          "internalType": "address payable",
          "name": "seller",
          "type": "address"
        },
        {
          "internalType": "uint256",
          "name": "amount",
          "type": "uint256"
        },
        {
          "internalType": "uint256",
          "name": "escrowFee",
          "type": "uint256"
        },
        {
          "internalType": "uint256",
          "name": "createdAt",
          "type": "uint256"
        },
        {
          "internalType": "uint256",
          "name": "releaseTime",
          "type": "uint256"
        },
        {
          "internalType": "enum PaymentEscrow.EscrowStatus",
          "name": "status",
          "type": "uint8"
        },
        {
          "internalType": "string",
          "name": "productId",
          "type": "string"
        },
        {
          "internalType": "string",
          "name": "notes",
          "type": "string"
        },
        {
          "internalType": "address",
          "name": "arbiter",
          "type": "address"
        }
      ],
      "stateMutability": "view",
      "type": "function"
    },
    {
      "inputs": [
        {
          "internalType": "address",
          "name": "_buyer",
          "type": "address"
        }
      ],
      "name": "getBuyerEscrows",
      "outputs": [
        {
          "internalType": "uint256[]",
          "name": "",
          "type": "uint256[]"
        }
      ],
      "stateMutability": "view",
      "type": "function"
    },
    {
      "inputs": [],
      "name": "getContractStats",
      "outputs": [
        {
          "internalType": "uint256",
          "name": "balance",
          "type": "uint256"
        },
        {
          "internalType": "uint256",
          "name": "lockedValue",
          "type": "uint256"
        },
        {
          "internalType": "uint256",
          "name": "totalCreated",
          "type": "uint256"
        },
        {
          "internalType": "uint256",
          "name": "totalCompleted",
          "type": "uint256"
        },
        {
          "internalType": "uint256",
          "name": "feeRate",
          "type": "uint256"
        }
      ],
      "stateMutability": "view",
      "type": "function"
    },
    {
      "inputs": [
        {
          "internalType": "uint256",
          "name": "_escrowId",
          "type": "uint256"
        }
      ],
      "name": "getEscrow",
      "outputs": [
        {
          "internalType": "uint256",
          "name": "escrowId",
          "type": "uint256"
        },
        {
          "internalType": "address",
          "name": "buyer",
          "type": "address"
        },
        {
          "internalType": "address",
          "name": "seller",
          "type": "address"
        },
        {
          "internalType": "uint256",
          "name": "amount",
          "type": "uint256"
        },
        {
          "internalType": "uint256",
          "name": "escrowFee",
          "type": "uint256"
        },
        {
          "internalType": "uint256",
          "name": "createdAt",
          "type": "uint256"
        },
        {
          "internalType": "uint256",
          "name": "releaseTime",
          "type": "uint256"
        },
        {
          "internalType": "enum PaymentEscrow.EscrowStatus",
          "name": "status",
          "type": "uint8"
        },
        {
          "internalType": "string",
          "name": "productId",
          "type": "string"
        },
        {
          "internalType": "string",
          "name": "notes",
          "type": "string"
        },
        {
          "internalType": "address",
          "name": "arbiter",
          "type": "address"
        }
      ],
      "stateMutability": "view",
      "type": "function"
    },
    {
      "inputs": [
        {
          "internalType": "address",
          "name": "_seller",
          "type": "address"
        }
      ],
      "name": "getSellerEscrows",
      "outputs": [
        {
          "internalType": "uint256[]",
          "name": "",
          "type": "uint256[]"
        }
      ],
      "stateMutability": "view",
      "type": "function"
    },
    {
      "inputs": [
        {
          "internalType": "address",
          "name": "_address",
          "type": "address"
        }
      ],
      "name": "isAuthorizedArbiter",
      "outputs": [
        {
          "internalType": "bool",
          "name": "",
          "type": "bool"
        }
      ],
      "stateMutability": "view",
      "type": "function"
    },
    {
      "inputs": [],
      "name": "owner",
      "outputs": [
        {
          "internalType": "address",
          "name": "",
          "type": "address"
        }
      ],
      "stateMutability": "view",
      "type": "function"
    },
    {
      "inputs": [],
      "name": "pause",
      "outputs": [],
      "stateMutability": "nonpayable",
      "type": "function"
    },
    {
      "inputs": [],
      "name": "paused",
      "outputs": [
        {
          "internalType": "bool",
          "name": "",
          "type": "bool"
        }
      ],
      "stateMutability": "view",
      "type": "function"
    },
    {
      "inputs": [
        {
          "internalType": "uint256",
          "name": "_escrowId",
          "type": "uint256"
        },
        {
          "internalType": "string",
          "name": "_reason",
          "type": "string"
        }
      ],
      "name": "raiseDispute",
      "outputs": [],
      "stateMutability": "nonpayable",
      "type": "function"
    },
    {
      "inputs": [
        {
          "internalType": "uint256",
          "name": "_escrowId",
          "type": "uint256"
        }
      ],
      "name": "refundEscrow",
      "outputs": [],
      "stateMutability": "nonpayable",
      "type": "function"
    },
    {
      "inputs": [
        {
          "internalType": "uint256",
          "name": "_escrowId",
          "type": "uint256"
        }
      ],
      "name": "releaseEscrow",
      "outputs": [],
      "stateMutability": "nonpayable",
      "type": "function"
    },
    {
      "inputs": [],
      "name": "renounceOwnership",
      "outputs": [],
      "stateMutability": "nonpayable",
      "type": "function"
    },
    {
      "inputs": [
        {
          "internalType": "uint256",
          "name": "_escrowId",
          "type": "uint256"
        },
        {
          "internalType": "bool",
          "name": "_releaseToSeller",
          "type": "bool"
        }
      ],
      "name": "resolveDispute",
      "outputs": [],
      "stateMutability": "nonpayable",
      "type": "function"
    },
    {
      "inputs": [
        {
          "internalType": "address",
          "name": "",
          "type": "address"
        },
        {
          "internalType": "uint256",
          "name": "",
          "type": "uint256"
        }
      ],
      "name": "sellerEscrows",
      "outputs": [
        {
          "internalType": "uint256",
          "name": "",
          "type": "uint256"
        }
      ],
      "stateMutability": "view",
      "type": "function"
    },
    {
      "inputs": [
        {
          "internalType": "address",
          "name": "_arbiter",
          "type": "address"
        },
        {
          "internalType": "bool",
          "name": "_authorized",
          "type": "bool"
        }
      ],
      "name": "setArbiterAuthorization",
      "outputs": [],
      "stateMutability": "nonpayable",
      "type": "function"
    },
    {
      "inputs": [
        {
          "internalType": "uint256",
          "name": "_newTimeout",
          "type": "uint256"
        }
      ],
      "name": "setAutoReleaseTimeout",
      "outputs": [],
      "stateMutability": "nonpayable",
      "type": "function"
    },
    {
      "inputs": [
        {
          "internalType": "uint256",
          "name": "_newRate",
          "type": "uint256"
        }
      ],
      "name": "setEscrowFeeRate",
      "outputs": [],
      "stateMutability": "nonpayable",
      "type": "function"
    },
    {
      "inputs": [],
      "name": "totalEscrowValue",
      "outputs": [
        {
          "internalType": "uint256",
          "name": "",
          "type": "uint256"
        }
      ],
      "stateMutability": "view",
      "type": "function"
    },
    {
      "inputs": [],
      "name": "totalEscrows",
      "outputs": [
        {
          "internalType": "uint256",
          "name": "",
          "type": "uint256"
        }
      ],
      "stateMutability": "view",
      "type": "function"
    },
    {
      "inputs": [],
      "name": "totalEscrowsCompleted",
      "outputs": [
        {
          "internalType": "uint256",
          "name": "",
          "type": "uint256"
        }
      ],
      "stateMutability": "view",
      "type": "function"
    },
    {
      "inputs": [
        {
          "internalType": "address",
          "name": "newOwner",
          "type": "address"
        }
      ],
      "name": "transferOwnership",
      "outputs": [],
      "stateMutability": "nonpayable",
      "type": "function"
    },
    {
      "inputs": [],
      "name": "unpause",
      "outputs": [],
      "stateMutability": "nonpayable",
      "type": "function"
    },
    {
      "inputs": [],
      "name": "withdrawFees",
      "outputs": [],
      "stateMutability": "nonpayable",
      "type": "function"
    },
    {
      "stateMutability": "payable",
      "type": "receive"
    }
  ],
  "bytecode": "0x608060405260c860015562093a8060025534801561001c57600080fd5b50338061004357604051631e4fbdf760e01b81526000600482015260240160405180910390fd5b61004c81610090565b5060017f9b779b17422d0df92223018b32b4d1fa46e071723d6817e2486d003becc55f0055336000908152600960205260409020805460ff191660011790556100e0565b600080546001600160a01b038381166001600160a01b0319831681178455604051919092169283917f8be0079c531659141344cd1fd0a4f28419497f9722a3daafe3b4186f6b6457e09190a35050565b6125e680620000f06000396000f3fe6080604052600436106101dc5760003560e01c806370c951a511610102578063de44c57811610095578063e238e0aa11610064578063e238e0aa1461058c578063ed653164146105a2578063f2fde38b146105c2578063fb20190a146105e257600080fd5b8063de44c578146104ee578063dfe6b5d61461050e578063e018243614610556578063e21e25801461057657600080fd5b80638da5cb5b116100d15780638da5cb5b1461044d5780639c97da1614610475578063b3f197d7146104ae578063c4f235df146104ce57600080fd5b806370c951a5146103e3578063715018a6146104035780637d19e596146104185780638456cb591461043857600080fd5b806338596b0b1161017a5780635aef573c116101495780635aef573c1461037b5780635c975abb1461039b57806363ee7c8d146103ba5780636837bda9146103d057600080fd5b806338596b0b146102fb5780633f4ba83a1461031157806345f7581114610326578063476343ee1461036657600080fd5b80631b5924cf116101b65780631b5924cf1461026e5780632ac08bd31461028e57806334b25ee2146102bb578063356f9dfd146102db57600080fd5b8063012f52ee146101e857806301c90a0614610228578063065abb2a1461024c57600080fd5b366101e357005b600080fd5b3480156101f457600080fd5b50610208610203366004611f9e565b610602565b60405161021f9b9a99989796959493929190612035565b60405180910390f35b34801561023457600080fd5b5061023e60035481565b60405190815260200161021f565b34801561025857600080fd5b5061026c610267366004611f9e565b610786565b005b34801561027a57600080fd5b5061023e6102893660046120d3565b6108e6565b34801561029a57600080fd5b506102ae6102a93660046120ff565b610917565b60405161021f9190612123565b3480156102c757600080fd5b5061026c6102d636600461217c565b610983565b3480156102e757600080fd5b5061026c6102f6366004611f9e565b610c3c565b34801561030757600080fd5b5061023e60015481565b34801561031d57600080fd5b5061026c610e8d565b34801561033257600080fd5b506103566103413660046120ff565b60096020526000908152604090205460ff1681565b604051901515815260200161021f565b34801561037257600080fd5b5061026c610e9f565b34801561038757600080fd5b5061026c61039636600461224b565b610fbe565b3480156103a757600080fd5b50600054600160a01b900460ff16610356565b3480156103c657600080fd5b5061023e60045481565b61023e6103de366004612292565b6110eb565b3480156103ef57600080fd5b5061023e6103fe3660046120d3565b61148a565b34801561040f57600080fd5b5061026c6114a6565b34801561042457600080fd5b50610208610433366004611f9e565b6114b8565b34801561044457600080fd5b5061026c611728565b34801561045957600080fd5b506000546040516001600160a01b03909116815260200161021f565b34801561048157600080fd5b506103566104903660046120ff565b6001600160a01b031660009081526009602052604090205460ff1690565b3480156104ba57600080fd5b506102ae6104c93660046120ff565b611738565b3480156104da57600080fd5b5061026c6104e9366004611f9e565b6117a2565b3480156104fa57600080fd5b5061026c61050936600461231b565b6117f9565b34801561051a57600080fd5b5061052e6003546004546005546001544794565b604080519586526020860194909452928401919091526060830152608082015260a00161021f565b34801561056257600080fd5b5061026c610571366004611f9e565b611860565b34801561058257600080fd5b5061023e60025481565b34801561059857600080fd5b5061023e60055481565b3480156105ae57600080fd5b5061026c6105bd366004611f9e565b611adf565b3480156105ce57600080fd5b5061026c6105dd3660046120ff565b611bbf565b3480156105ee57600080fd5b5061026c6105fd366004611f9e565b611bfd565b600660208190526000918252604090912080546001820154600283015460038401546004850154600586015496860154600787015460088801805497996001600160a01b039788169997909616979496939594929360ff9092169261066690612347565b80601f016020809104026020016040519081016040528092919081815260200182805461069290612347565b80156106df5780601f106106b4576101008083540402835291602001916106df565b820191906000526020600020905b8154815290600101906020018083116106c257829003601f168201915b5050505050908060090180546106f490612347565b80601f016020809104026020016040519081016040528092919081815260200182805461072090612347565b801561076d5780601f106107425761010080835404028352916020019161076d565b820191906000526020600020905b81548152906001019060200180831161075057829003601f168201915b505050600a90930154919250506001600160a01b03168b565b806000808281526006602052604090206007015460ff1660048111156107ae576107ae611fb7565b146107d45760405162461bcd60e51b81526004016107cb90612381565b60405180910390fd5b6107dc611c97565b6107e4611cb3565b6000828152600660208190526040909120908101544210156108485760405162461bcd60e51b815260206004820152601860248201527f52656c656173652074696d65206e6f742072656163686564000000000000000060448201526064016107cb565b60028101546001600160a01b031633148061086f575060018101546001600160a01b031633145b8061088457506000546001600160a01b031633145b6108c15760405162461bcd60e51b815260206004820152600e60248201526d139bdd08185d5d1a1bdc9a5e995960921b60448201526064016107cb565b6108ca83611cde565b506108e2600160008051602061259183398151915255565b5050565b6008602052816000526040600020818154811061090257600080fd5b90600052602060002001600091509150505481565b6001600160a01b03811660009081526008602090815260409182902080548351818402810184019094528084526060939283018282801561097757602002820191906000526020600020905b815481526020019060010190808311610963575b50505050509050919050565b33600090815260096020526040902054829060ff16806109bc57506000818152600660205260409020600a01546001600160a01b031633145b806109d157506000546001600160a01b031633145b610a165760405162461bcd60e51b81526020600482015260166024820152752737ba1030baba3437b934bd32b21030b93134ba32b960511b60448201526064016107cb565b610a1e611c97565b60008381526006602052604090206003600782015460ff166004811115610a4757610a47611fb7565b14610a855760405162461bcd60e51b815260206004820152600e60248201526d4e6f7420696e206469737075746560901b60448201526064016107cb565b8215610aa55760078101805460ff19169055610aa084611cde565b610bda565b600381015460048201546001808401546007850180546001600160a01b039092169260029260ff1916908302179055508260036000828254610ae791906123c2565b90915550600090506001600160a01b038216610b0384866123db565b604051600081818185875af1925050503d8060008114610b3f576040519150601f19603f3d011682016040523d82523d6000602084013e610b44565b606091505b5050905080610b8e5760405162461bcd60e51b81526020600482015260166024820152751499599d5b99081d1c985b9cd9995c8819985a5b195960521b60448201526064016107cb565b6001600160a01b038216887feac97bc1917fcedc984e3d0671d4e83b359890323d5d1c2de32b28d17c356ced610bc486886123db565b60405190815260200160405180910390a3505050505b6007810154604051339186917f0a1a08d07b8bb2ef5e6eea14f3719239138f1ce03a4ceea3196c1000a265c12a91610c179160ff909116906123ee565b60405180910390a350610c37600160008051602061259183398151915255565b505050565b806000808281526006602052604090206007015460ff166004811115610c6457610c64611fb7565b14610c815760405162461bcd60e51b81526004016107cb90612381565b610c89611c97565b610c91611cb3565b600082815260066020526040902060028101546001600160a01b0316331480610cc65750600a8101546001600160a01b031633145b80610ce057503360009081526009602052604090205460ff165b80610cf557506000546001600160a01b031633145b610d415760405162461bcd60e51b815260206004820152601860248201527f4e6f7420617574686f72697a656420746f20726566756e64000000000000000060448201526064016107cb565b600381015460048201546001808401546007850180546001600160a01b039092169260029260ff1916908302179055508260036000828254610d8391906123c2565b90915550600090506001600160a01b038216610d9f84866123db565b604051600081818185875af1925050503d8060008114610ddb576040519150601f19603f3d011682016040523d82523d6000602084013e610de0565b606091505b5050905080610e2a5760405162461bcd60e51b81526020600482015260166024820152751499599d5b99081d1c985b9cd9995c8819985a5b195960521b60448201526064016107cb565b6001600160a01b038216877feac97bc1917fcedc984e3d0671d4e83b359890323d5d1c2de32b28d17c356ced610e6086886123db565b60405190815260200160405180910390a350505050506108e2600160008051602061259183398151915255565b610e95611e2f565b610e9d611e5c565b565b610ea7611e2f565b610eaf611c97565b60035447906000610ec082846123c2565b905060008111610f085760405162461bcd60e51b81526020600482015260136024820152724e6f206665657320746f20776974686472617760681b60448201526064016107cb565b600080546040516001600160a01b039091169083908381818185875af1925050503d8060008114610f55576040519150601f19603f3d011682016040523d82523d6000602084013e610f5a565b606091505b5050905080610fa35760405162461bcd60e51b8152602060048201526015602482015274119959481dda5d1a191c985dd85b0819985a5b1959605a1b60448201526064016107cb565b50505050610e9d600160008051602061259183398151915255565b60008281526006602052604090206001015482906001600160a01b031633148061100157506000818152600660205260409020600201546001600160a01b031633145b6110455760405162461bcd60e51b815260206004820152601560248201527413db9b1e481c185c9d1a595cc81a5b9d9bdb1d9959605a1b60448201526064016107cb565b826000808281526006602052604090206007015460ff16600481111561106d5761106d611fb7565b1461108a5760405162461bcd60e51b81526004016107cb90612381565b6000848152600660205260409081902060078101805460ff191660031790559051339086907fc523357a17c19a0da11b08e9f4d7e4fbed304cbe1be1d3583e4d5a677d75d709906110dc9088906123fc565b60405180910390a35050505050565b60006110f5611cb3565b6001600160a01b0385166111445760405162461bcd60e51b8152602060048201526016602482015275496e76616c69642073656c6c6572206164647265737360501b60448201526064016107cb565b336001600160a01b0386160361119c5760405162461bcd60e51b815260206004820152601960248201527f43616e6e6f7420657363726f7720746f20796f757273656c660000000000000060448201526064016107cb565b600034116111dc5760405162461bcd60e51b815260206004820152600d60248201526c09aeae6e840e6cadcc8408aa89609b1b60448201526064016107cb565b60008451116112235760405162461bcd60e51b8152602060048201526013602482015272141c9bd91d58dd081251081c995c5d5a5c9959606a1b60448201526064016107cb565b600061271060015434611236919061240f565b6112409190612426565b9050600061124e82346123c2565b60048054919250600061126083612448565b919050555060006004549050604051806101600160405280828152602001336001600160a01b03168152602001896001600160a01b03168152602001838152602001848152602001428152602001600254426112bc91906123db565b81526020016000815260208082018a905260408083018a90526001600160a01b03808a1660609485015260008681526006808552908390208651815593860151600180860180549285166001600160a01b03199384161790559387015160028601805491909416911617909155928401516003830155608084015160048084019190915560a0850151600584015560c08501519383019390935560e084015160078301805493949193909260ff1990911691849081111561137f5761137f611fb7565b0217905550610100820151600882019061139990826124af565b5061012082015160098201906113af90826124af565b506101409190910151600a90910180546001600160a01b0319166001600160a01b0392831617905533600090815260076020908152604080832080546001818101835591855283852001869055938c16835260088252822080549384018155825281209091018290556003805484929061142a9084906123db565b92505081905550876001600160a01b0316336001600160a01b0316827f079316c6cb044ce8147d3a031eb8c26e06754da3a9393a80d7619a0e1269675f858b60405161147792919061256f565b60405180910390a4979650505050505050565b6007602052816000526040600020818154811061090257600080fd5b6114ae611e2f565b610e9d6000611eb1565b60008181526006602081815260408084208151610160810183528154815260018201546001600160a01b039081169482019490945260028201549093169183019190915260038101546060838101919091526004808301546080850152600583015460a08501529382015460c084015260078201548594859485948594859485948594929384938693849391929160e084019160ff169081111561155e5761155e611fb7565b600481111561156f5761156f611fb7565b815260200160088201805461158390612347565b80601f01602080910402602001604051908101604052809291908181526020018280546115af90612347565b80156115fc5780601f106115d1576101008083540402835291602001916115fc565b820191906000526020600020905b8154815290600101906020018083116115df57829003601f168201915b5050505050815260200160098201805461161590612347565b80601f016020809104026020016040519081016040528092919081815260200182805461164190612347565b801561168e5780601f106116635761010080835404028352916020019161168e565b820191906000526020600020905b81548152906001019060200180831161167157829003601f168201915b50505050508152602001600a820160009054906101000a90046001600160a01b03166001600160a01b03166001600160a01b0316815250509050806000015181602001518260400151836060015184608001518560a001518660c001518760e001518861010001518961012001518a61014001519b509b509b509b509b509b509b509b509b509b509b505091939597999b90929496989a50565b611730611e2f565b610e9d611f01565b6001600160a01b03811660009081526007602090815260409182902080548351818402810184019094528084526060939283018282801561097757602002820191906000526020600020908154815260200190600101908083116109635750505050509050919050565b6117aa611e2f565b6101f48111156117f45760405162461bcd60e51b815260206004820152601560248201527446656520746f6f206869676820286d61782035252960581b60448201526064016107cb565b600155565b611801611e2f565b6001600160a01b038216600081815260096020908152604091829020805460ff191685151590811790915591519182527f418ca26f772921ae0dac6ef2fa5bfabe147a236babb0a282f27654e008a775bc910160405180910390a25050565b806000808281526006602052604090206007015460ff16600481111561188857611888611fb7565b146118a55760405162461bcd60e51b81526004016107cb90612381565b6118ad611c97565b600082815260066020526040902060018101546001600160a01b031633036119335760058101546118e090610e106123db565b421061192e5760405162461bcd60e51b815260206004820152601b60248201527f43616e63656c6c6174696f6e20706572696f642065787069726564000000000060448201526064016107cb565b6119a4565b60028101546001600160a01b031633148061195857506000546001600160a01b031633145b6119a45760405162461bcd60e51b815260206004820152601860248201527f4e6f7420617574686f72697a656420746f2063616e63656c000000000000000060448201526064016107cb565b600381810154600480840154600185015460078601805460ff19169093179092558354929390926001600160a01b03909216918491906000906119e89084906123c2565b90915550600090506001600160a01b038216611a0484866123db565b604051600081818185875af1925050503d8060008114611a40576040519150601f19603f3d011682016040523d82523d6000602084013e611a45565b606091505b5050905080611a965760405162461bcd60e51b815260206004820152601a60248201527f43616e63656c6c6174696f6e20726566756e64206661696c656400000000000060448201526064016107cb565b604051339088907f6f44c80719cb2f74bdbd68b7af10147acb9b52e2675ad02f9c87f0985995993890600090a350505050506108e2600160008051602061259183398151915255565b60008181526006602052604090206001015481906001600160a01b03163314611b4a5760405162461bcd60e51b815260206004820152601860248201527f4f6e6c792062757965722063616e2063616c6c2074686973000000000000000060448201526064016107cb565b816000808281526006602052604090206007015460ff166004811115611b7257611b72611fb7565b14611b8f5760405162461bcd60e51b81526004016107cb90612381565b611b97611c97565b611b9f611cb3565b611ba883611cde565b610c37600160008051602061259183398151915255565b611bc7611e2f565b6001600160a01b038116611bf157604051631e4fbdf760e01b8152600060048201526024016107cb565b611bfa81611eb1565b50565b611c05611e2f565b62015180811015611c4c5760405162461bcd60e51b8152602060048201526011602482015270151a5b595bdd5d081d1bdbc81cda1bdc9d607a1b60448201526064016107cb565b62278d00811115611c925760405162461bcd60e51b815260206004820152601060248201526f54696d656f757420746f6f206c6f6e6760801b60448201526064016107cb565b600255565b611c9f611f44565b600260008051602061259183398151915255565b600054600160a01b900460ff1615610e9d5760405163d93c066560e01b815260040160405180910390fd5b6000818152600660205260409020600381015460028201546007830180546001600160a01b03909216916001919060ff1916828002179055508160036000828254611d2991906123c2565b909155505060058054906000611d3e83612448565b91905055506000816001600160a01b03168360405160006040518083038185875af1925050503d8060008114611d90576040519150601f19603f3d011682016040523d82523d6000602084013e611d95565b606091505b5050905080611de65760405162461bcd60e51b815260206004820152601960248201527f5472616e7366657220746f2073656c6c6572206661696c65640000000000000060448201526064016107cb565b816001600160a01b0316857f07dd78b97459a0754e75d3d53bbd26afd8a683f317c40b50eea07d05c49f966b8587600401546040516110dc929190918252602082015260400190565b6000546001600160a01b03163314610e9d5760405163118cdaa760e01b81523360048201526024016107cb565b611e64611f74565b6000805460ff60a01b191690557f5db9ee0a495bf2e6ff9c91a7834c1ba4fdd244a5e8aa4e537bd38aeae4b073aa335b6040516001600160a01b03909116815260200160405180910390a1565b600080546001600160a01b038381166001600160a01b0319831681178455604051919092169283917f8be0079c531659141344cd1fd0a4f28419497f9722a3daafe3b4186f6b6457e09190a35050565b611f09611cb3565b6000805460ff60a01b1916600160a01b1790557f62e78cea01bee320cd4e420270b5ea74000d11b0c9f74754ebdbfc544b05a258611e943390565b60008051602061259183398151915254600203610e9d57604051633ee5aeb560e01b815260040160405180910390fd5b600054600160a01b900460ff16610e9d57604051638dfc202b60e01b815260040160405180910390fd5b600060208284031215611fb057600080fd5b5035919050565b634e487b7160e01b600052602160045260246000fd5b60058110611feb57634e487b7160e01b600052602160045260246000fd5b9052565b6000815180845260005b8181101561201557602081850181015186830182015201611ff9565b506000602082860101526020601f19601f83011685010191505092915050565b60006101608d835260018060a01b03808e166020850152808d1660408501528b60608501528a60808501528960a08501528860c085015261207960e0850189611fcd565b8161010085015261208c82850188611fef565b91508382036101208501526120a18287611fef565b925080851661014085015250509c9b505050505050505050505050565b6001600160a01b0381168114611bfa57600080fd5b600080604083850312156120e657600080fd5b82356120f1816120be565b946020939093013593505050565b60006020828403121561211157600080fd5b813561211c816120be565b9392505050565b6020808252825182820181905260009190848201906040850190845b8181101561215b5783518352928401929184019160010161213f565b50909695505050505050565b8035801515811461217757600080fd5b919050565b6000806040838503121561218f57600080fd5b8235915061219f60208401612167565b90509250929050565b634e487b7160e01b600052604160045260246000fd5b600082601f8301126121cf57600080fd5b813567ffffffffffffffff808211156121ea576121ea6121a8565b604051601f8301601f19908116603f01168101908282118183101715612212576122126121a8565b8160405283815286602085880101111561222b57600080fd5b836020870160208301376000602085830101528094505050505092915050565b6000806040838503121561225e57600080fd5b82359150602083013567ffffffffffffffff81111561227c57600080fd5b612288858286016121be565b9150509250929050565b600080600080608085870312156122a857600080fd5b84356122b3816120be565b9350602085013567ffffffffffffffff808211156122d057600080fd5b6122dc888389016121be565b945060408701359150808211156122f257600080fd5b506122ff878288016121be565b9250506060850135612310816120be565b939692955090935050565b6000806040838503121561232e57600080fd5b8235612339816120be565b915061219f60208401612167565b600181811c9082168061235b57607f821691505b60208210810361237b57634e487b7160e01b600052602260045260246000fd5b50919050565b602080825260119082015270457363726f77206e6f742061637469766560781b604082015260600190565b634e487b7160e01b600052601160045260246000fd5b818103818111156123d5576123d56123ac565b92915050565b808201808211156123d5576123d56123ac565b602081016123d58284611fcd565b60208152600061211c6020830184611fef565b80820281158282048414176123d5576123d56123ac565b60008261244357634e487b7160e01b600052601260045260246000fd5b500490565b60006001820161245a5761245a6123ac565b5060010190565b601f821115610c3757600081815260208120601f850160051c810160208610156124885750805b601f850160051c820191505b818110156124a757828155600101612494565b505050505050565b815167ffffffffffffffff8111156124c9576124c96121a8565b6124dd816124d78454612347565b84612461565b602080601f83116001811461251257600084156124fa5750858301515b600019600386901b1c1916600185901b1785556124a7565b600085815260208120601f198616915b8281101561254157888601518255948401946001909101908401612522565b508582101561255f5787850151600019600388901b60f8161c191681555b5050505050600190811b01905550565b8281526040602082015260006125886040830184611fef565b94935050505056fe9b779b17422d0df92223018b32b4d1fa46e071723d6817e2486d003becc55f00a2646970667358221220efeaf99ff5a048a348243d863ea0b2d17115bf1ce6ba827301fe322c715d02d764736f6c63430008140033",
  "linkReferences": {},
  "deployedLinkReferences": {}
}