{
  "_format": "hh-sol-artifact-1",
  "contractName": "KimuntuXWallet",
  "sourceName": "contracts/KimuntuXWallet.sol",
  "abi": [
    {
      "inputs": [
        {
          "internalType": "uint256",
          "name": "_minimumWithdrawalAmount",
          "type": "uint256"
        }
      ],
      "stateMutability": "nonpayable",
      "type": "constructor"
    },
    {
      "inputs": [],
      "name": "EnforcedPause",
      "type": "error"
    },
    {
      "inputs": [],
      "name": "ExpectedPause",
      "type": "error"
    },
    {
      "inputs": [
        {
          "internalType": "address",
          "name": "owner",
          "type": "address"
        }
      ],
      "name": "OwnableInvalidOwner",
      "type": "error"
    },
    {
      "inputs": [
        {
          "internalType": "address",
          "name": "account",
          "type": "address"
        }
      ],
      "name": "OwnableUnauthorizedAccount",
      "type": "error"
    },
    {
      "inputs": [],
      "name": "ReentrancyGuardReentrantCall",
      "type": "error"
    },
    {
      "inputs": [
        {
          "internalType": "address",
          "name": "token",
          "type": "address"
        }
      ],
      "name": "SafeERC20FailedOperation",
      "type": "error"
    },
    {
      "anonymous": false,
      "inputs": [
        {
          "indexed": true,
          "internalType": "address",
          "name": "wallet",
          "type": "address"
        },
        {
          "indexed": false,
          "internalType": "uint256",
          "name": "amount",
          "type": "uint256"
        },
        {
          "indexed": false,
          "internalType": "uint256",
          "name": "timestamp",
          "type": "uint256"
        }
      ],
      "name": "ETHDeposit",
      "type": "event"
    },
    {
      "anonymous": false,
      "inputs": [
        {
          "indexed": true,
          "internalType": "address",
          "name": "wallet",
          "type": "address"
        },
        {
          "indexed": false,
          "internalType": "uint256",
          "name": "amount",
          "type": "uint256"
        },
        {
          "indexed": false,
          "internalType": "uint256",
          "name": "timestamp",
          "type": "uint256"
        }
      ],
      "name": "ETHWithdrawal",
      "type": "event"
    },
    {
      "anonymous": false,
      "inputs": [
        {
          "indexed": false,
          "internalType": "uint256",
          "name": "newMinimum",
          "type": "uint256"
        }
      ],
      "name": "MinimumWithdrawalUpdated",
      "type": "event"
    },
    {
      "anonymous": false,
      "inputs": [
        {
          "indexed": true,
          "internalType": "address",
          "name": "previousOwner",
          "type": "address"
        },
        {
          "indexed": true,
          "internalType": "address",
          "name": "newOwner",
          "type": "address"
        }
      ],
      "name": "OwnershipTransferred",
      "type": "event"
    },
    {
      "anonymous": false,
      "inputs": [
        {
          "indexed": false,
          "internalType": "address",
          "name": "account",
          "type": "address"
        }
      ],
      "name": "Paused",
      "type": "event"
    },
    {
      "anonymous": false,
      "inputs": [
        {
          "indexed": true,
          "internalType": "address",
          "name": "platform",
          "type": "address"
        }
      ],
      "name": "PlatformAuthorized",
      "type": "event"
    },
    {
      "anonymous": false,
      "inputs": [
        {
          "indexed": true,
          "internalType": "address",
          "name": "platform",
          "type": "address"
        }
      ],
      "name": "PlatformRevoked",
      "type": "event"
    },
    {
      "anonymous": false,
      "inputs": [
        {
          "indexed": true,
          "internalType": "address",
          "name": "token",
          "type": "address"
        },
        {
          "indexed": false,
          "internalType": "string",
          "name": "symbol",
          "type": "string"
        }
      ],
      "name": "TokenAdded",
      "type": "event"
    },
    {
      "anonymous": false,
      "inputs": [
        {
          "indexed": true,
          "internalType": "address",
          "name": "wallet",
          "type": "address"
        },
        {
          "indexed": true,
          "internalType": "address",
          "name": "token",
          "type": "address"
        },
        {
          "indexed": false,
          "internalType": "uint256",
          "name": "amount",
          "type": "uint256"
        },
        {
          "indexed": false,
          "internalType": "string",
          "name": "symbol",
          "type": "string"
        },
        {
          "indexed": false,
          "internalType": "uint256",
          "name": "timestamp",
          "type": "uint256"
        }
      ],
      "name": "TokenDeposit",
      "type": "event"
    },
    {
      "anonymous": false,
      "inputs": [
        {
          "indexed": true,
          "internalType": "address",
          "name": "token",
          "type": "address"
        },
        {
          "indexed": false,
          "internalType": "string",
          "name": "symbol",
          "type": "string"
        }
      ],
      "name": "TokenRemoved",
      "type": "event"
    },
    {
      "anonymous": false,
      "inputs": [
        {
          "indexed": true,
          "internalType": "address",
          "name": "wallet",
          "type": "address"
        },
        {
          "indexed": true,
          "internalType": "address",
          "name": "token",
          "type": "address"
        },
        {
          "indexed": false,
          "internalType": "uint256",
          "name": "amount",
          "type": "uint256"
        },
        {
          "indexed": false,
          "internalType": "string",
          "name": "symbol",
          "type": "string"
        },
        {
          "indexed": false,
          "internalType": "uint256",
          "name": "timestamp",
          "type": "uint256"
        }
      ],
      "name": "TokenWithdrawal",
      "type": "event"
    },
    {
      "anonymous": false,
      "inputs": [
        {
          "indexed": true,
          "internalType": "address",
          "name": "from",
          "type": "address"
        },
        {
          "indexed": true,
          "internalType": "address",
          "name": "to",
          "type": "address"
        },
        {
          "indexed": false,
          "internalType": "uint256",
          "name": "amount",
          "type": "uint256"
        },
        {
          "indexed": false,
          "internalType": "address",
          "name": "token",
          "type": "address"
        },
        {
          "indexed": false,
          "internalType": "uint256",
          "name": "timestamp",
          "type": "uint256"
        }
      ],
      "name": "Transfer",
      "type": "event"
    },
    {
      "anonymous": false,
      "inputs": [
        {
          "indexed": false,
          "internalType": "address",
          "name": "account",
          "type": "address"
        }
      ],
      "name": "Unpaused",
      "type": "event"
    },
    {
      "anonymous": false,
      "inputs": [
        {
          "indexed": true,
          "internalType": "address",
          "name": "owner",
          "type": "address"
        },
        {
          "indexed": false,
          "internalType": "uint256",
          "name": "timestamp",
          "type": "uint256"
        }
      ],
      "name": "WalletCreated",
      "type": "event"
    },
    {
      "stateMutability": "payable",
      "type": "fallback"
    },
    {
      "inputs": [
        {
          "internalType": "address",
          "name": "_token",
          "type": "address"
        },
        {
          "internalType": "string",
          "name": "_symbol",
          "type": "string"
        }
      ],
      "name": "addSupportedToken",
      "outputs": [],
      "stateMutability": "nonpayable",
      "type": "function"
    },
    {
      "inputs": [
        {
          "internalType": "uint256",
          "name": "",
          "type": "uint256"
        }
      ],
      "name": "allWalletAddresses",
      "outputs": [
        {
          "internalType": "address",
          "name": "",
          "type": "address"
        }
      ],
      "stateMutability": "view",
      "type": "function"
    },
    {
      "inputs": [
        {
          "internalType": "address",
          "name": "_platform",
          "type": "address"
        }
      ],
      "name": "authorizePlatform",
      "outputs": [],
      "stateMutability": "nonpayable",
      "type": "function"
    },
    {
      "inputs": [
        {
          "internalType": "address",
          "name": "",
          "type": "address"
        }
      ],
      "name": "authorizedPlatforms",
      "outputs": [
        {
          "internalType": "bool",
          "name": "",
          "type": "bool"
        }
      ],
      "stateMutability": "view",
      "type": "function"
    },
    {
      "inputs": [],
      "name": "createWallet",
      "outputs": [],
      "stateMutability": "nonpayable",
      "type": "function"
    },
    {
      "inputs": [
        {
          "internalType": "address",
          "name": "_user",
          "type": "address"
        }
      ],
      "name": "createWalletFor",
      "outputs": [],
      "stateMutability": "nonpayable",
      "type": "function"
    },
    {
      "inputs": [
        {
          "internalType": "address",
          "name": "_user",
          "type": "address"
        },
        {
          "internalType": "uint256",
          "name": "_amount",
          "type": "uint256"
        }
      ],
      "name": "creditETH",
      "outputs": [],
      "stateMutability": "payable",
      "type": "function"
    },
    {
      "inputs": [
        {
          "internalType": "address",
          "name": "_user",
          "type": "address"
        },
        {
          "internalType": "address",
          "name": "_token",
          "type": "address"
        },
        {
          "internalType": "uint256",
          "name": "_amount",
          "type": "uint256"
        }
      ],
      "name": "creditToken",
      "outputs": [],
      "stateMutability": "nonpayable",
      "type": "function"
    },
    {
      "inputs": [],
      "name": "depositETH",
      "outputs": [],
      "stateMutability": "payable",
      "type": "function"
    },
    {
      "inputs": [
        {
          "internalType": "address",
          "name": "_token",
          "type": "address"
        },
        {
          "internalType": "uint256",
          "name": "_amount",
          "type": "uint256"
        }
      ],
      "name": "depositToken",
      "outputs": [],
      "stateMutability": "nonpayable",
      "type": "function"
    },
    {
      "inputs": [],
      "name": "emergencyWithdraw",
      "outputs": [],
      "stateMutability": "nonpayable",
      "type": "function"
    },
    {
      "inputs": [
        {
          "internalType": "address",
          "name": "_token",
          "type": "address"
        }
      ],
      "name": "emergencyWithdrawToken",
      "outputs": [],
      "stateMutability": "nonpayable",
      "type": "function"
    },
    {
      "inputs": [
        {
          "internalType": "address",
          "name": "_owner",
          "type": "address"
        }
      ],
      "name": "getAllBalances",
      "outputs": [
        {
          "internalType": "uint256",
          "name": "ethBalance",
          "type": "uint256"
        },
        {
          "internalType": "uint256[]",
          "name": "tokenBalances",
          "type": "uint256[]"
        },
        {
          "internalType": "address[]",
          "name": "tokenAddresses",
          "type": "address[]"
        }
      ],
      "stateMutability": "view",
      "type": "function"
    },
    {
      "inputs": [],
      "name": "getAllWallets",
      "outputs": [
        {
          "internalType": "address[]",
          "name": "",
          "type": "address[]"
        }
      ],
      "stateMutability": "view",
      "type": "function"
    },
    {
      "inputs": [
        {
          "internalType": "address",
          "name": "_owner",
          "type": "address"
        }
      ],
      "name": "getETHBalance",
      "outputs": [
        {
          "internalType": "uint256",
          "name": "",
          "type": "uint256"
        }
      ],
      "stateMutability": "view",
      "type": "function"
    },
    {
      "inputs": [],
      "name": "getSupportedTokens",
      "outputs": [
        {
          "internalType": "address[]",
          "name": "",
          "type": "address[]"
        }
      ],
      "stateMutability": "view",
      "type": "function"
    },
    {
      "inputs": [
        {
          "internalType": "address",
          "name": "_owner",
          "type": "address"
        },
        {
          "internalType": "address",
          "name": "_token",
          "type": "address"
        }
      ],
      "name": "getTokenBalance",
      "outputs": [
        {
          "internalType": "uint256",
          "name": "",
          "type": "uint256"
        }
      ],
      "stateMutability": "view",
      "type": "function"
    },
    {
      "inputs": [],
      "name": "getTotalWallets",
      "outputs": [
        {
          "internalType": "uint256",
          "name": "",
          "type": "uint256"
        }
      ],
      "stateMutability": "view",
      "type": "function"
    },
    {
      "inputs": [
        {
          "internalType": "address",
          "name": "_owner",
          "type": "address"
        }
      ],
      "name": "getWalletDetails",
      "outputs": [
        {
          "internalType": "address",
          "name": "owner",
          "type": "address"
        },
        {
          "internalType": "uint256",
          "name": "ethBalance",
          "type": "uint256"
        },
        {
          "internalType": "uint256",
          "name": "createdAt",
          "type": "uint256"
        },
        {
          "internalType": "uint256",
          "name": "totalDeposits",
          "type": "uint256"
        },
        {
          "internalType": "uint256",
          "name": "totalWithdrawals",
          "type": "uint256"
        }
      ],
      "stateMutability": "view",
      "type": "function"
    },
    {
      "inputs": [
        {
          "internalType": "address",
          "name": "_owner",
          "type": "address"
        }
      ],
      "name": "hasWallet",
      "outputs": [
        {
          "internalType": "bool",
          "name": "",
          "type": "bool"
        }
      ],
      "stateMutability": "view",
      "type": "function"
    },
    {
      "inputs": [],
      "name": "minimumWithdrawalAmount",
      "outputs": [
        {
          "internalType": "uint256",
          "name": "",
          "type": "uint256"
        }
      ],
      "stateMutability": "view",
      "type": "function"
    },
    {
      "inputs": [],
      "name": "owner",
      "outputs": [
        {
          "internalType": "address",
          "name": "",
          "type": "address"
        }
      ],
      "stateMutability": "view",
      "type": "function"
    },
    {
      "inputs": [],
      "name": "pause",
      "outputs": [],
      "stateMutability": "nonpayable",
      "type": "function"
    },
    {
      "inputs": [],
      "name": "paused",
      "outputs": [
        {
          "internalType": "bool",
          "name": "",
          "type": "bool"
        }
      ],
      "stateMutability": "view",
      "type": "function"
    },
    {
      "inputs": [
        {
          "internalType": "address",
          "name": "_token",
          "type": "address"
        }
      ],
      "name": "removeSupportedToken",
      "outputs": [],
      "stateMutability": "nonpayable",
      "type": "function"
    },
    {
      "inputs": [],
      "name": "renounceOwnership",
      "outputs": [],
      "stateMutability": "nonpayable",
      "type": "function"
    },
    {
      "inputs": [
        {
          "internalType": "address",
          "name": "_platform",
          "type": "address"
        }
      ],
      "name": "revokePlatform",
      "outputs": [],
      "stateMutability": "nonpayable",
      "type": "function"
    },
    {
      "inputs": [
        {
          "internalType": "address",
          "name": "",
          "type": "address"
        }
      ],
      "name": "supportedTokens",
      "outputs": [
        {
          "internalType": "address",
          "name": "tokenAddress",
          "type": "address"
        },
        {
          "internalType": "string",
          "name": "symbol",
          "type": "string"
        },
        {
          "internalType": "bool",
          "name": "isActive",
          "type": "bool"
        }
      ],
      "stateMutability": "view",
      "type": "function"
    },
    {
      "inputs": [
        {
          "internalType": "uint256",
          "name": "",
          "type": "uint256"
        }
      ],
      "name": "tokenAddressList",
      "outputs": [
        {
          "internalType": "address",
          "name": "",
          "type": "address"
        }
      ],
      "stateMutability": "view",
      "type": "function"
    },
    {
      "inputs": [],
      "name": "totalWallets",
      "outputs": [
        {
          "internalType": "uint256",
          "name": "",
          "type": "uint256"
        }
      ],
      "stateMutability": "view",
      "type": "function"
    },
    {
      "inputs": [
        {
          "internalType": "address",
          "name": "_recipient",
          "type": "address"
        },
        {
          "internalType": "uint256",
          "name": "_amount",
          "type": "uint256"
        }
      ],
      "name": "transferETH",
      "outputs": [],
      "stateMutability": "nonpayable",
      "type": "function"
    },
    {
      "inputs": [
        {
          "internalType": "address",
          "name": "newOwner",
          "type": "address"
        }
      ],
      "name": "transferOwnership",
      "outputs": [],
      "stateMutability": "nonpayable",
      "type": "function"
    },
    {
      "inputs": [
        {
          "internalType": "address",
          "name": "_recipient",
          "type": "address"
        },
        {
          "internalType": "address",
          "name": "_token",
          "type": "address"
        },
        {
          "internalType": "uint256",
          "name": "_amount",
          "type": "uint256"
        }
      ],
      "name": "transferToken",
      "outputs": [],
      "stateMutability": "nonpayable",
      "type": "function"
    },
    {
      "inputs": [],
      "name": "unpause",
      "outputs": [],
      "stateMutability": "nonpayable",
      "type": "function"
    },
    {
      "inputs": [
        {
          "internalType": "uint256",
          "name": "_newMinimum",
          "type": "uint256"
        }
      ],
      "name": "updateMinimumWithdrawal",
      "outputs": [],
      "stateMutability": "nonpayable",
      "type": "function"
    },
    {
      "inputs": [
        {
          "internalType": "address",
          "name": "",
          "type": "address"
        }
      ],
      "name": "walletExists",
      "outputs": [
        {
          "internalType": "bool",
          "name": "",
          "type": "bool"
        }
      ],
      "stateMutability": "view",
      "type": "function"
    },
    {
      "inputs": [],
      "name": "withdrawAllETH",
      "outputs": [],
      "stateMutability": "nonpayable",
      "type": "function"
    },
    {
      "inputs": [
        {
          "internalType": "uint256",
          "name": "_amount",
          "type": "uint256"
        }
      ],
      "name": "withdrawETH",
      "outputs": [],
      "stateMutability": "nonpayable",
      "type": "function"
    },
    {
      "inputs": [
        {
          "internalType": "address",
          "name": "_token",
          "type": "address"
        },
        {
          "internalType": "uint256",
          "name": "_amount",
          "type": "uint256"
        }
      ],
      "name": "withdrawToken",
      "outputs": [],
      "stateMutability": "nonpayable",
      "type": "function"
    },
    {
      "stateMutability": "payable",
      "type": "receive"
    }
  ],
  "bytecode": "0x60806040523480156200001157600080fd5b50604051620030ce380380620030ce8339810160408190526200003491620000fe565b33806200005b57604051631e4fbdf760e01b81526000600482015260240160405180910390fd5b6200006681620000ae565b5060017f9b779b17422d0df92223018b32b4d1fa46e071723d6817e2486d003becc55f0055600855336000908152600460205260409020805460ff1916600117905562000118565b600080546001600160a01b038381166001600160a01b0319831681178455604051919092169283917f8be0079c531659141344cd1fd0a4f28419497f9722a3daafe3b4186f6b6457e09190a35050565b6000602082840312156200011157600080fd5b5051919050565b612fa680620001286000396000f3fe6080604052600436106102345760003560e01c8063720138e81161012e5780639e281a98116100ab578063f14210a61161006f578063f14210a61461071f578063f2fde38b1461073f578063f5537ede1461075f578063f5f50eb11461077f578063f6326fb3146107945761023b565b80639e281a9814610686578063c489744b146106a6578063c53d6ce1146106c6578063d3c7c2c7146106f5578063db2e21bc1461070a5761023b565b80638456cb59116100f25780638456cb59146105d65780638cae45d2146105eb5780638da5cb5b1461063d57806390386bbf1461065b578063977d2c45146106705761023b565b8063720138e81461051d578063763191901461053d578063793780301461055d5780637b1a49091461057d57806380dc8b061461059d5761023b565b806333a412e5116101bc578063676004e611610180578063676004e61461046957806368c4ac2614610489578063708714a3146104b8578063714997d4146104e8578063715018a6146105085761023b565b806333a412e5146103e25780633bb66a7b146104025780633f4ba83a14610422578063536789d7146104375780635c975abb1461044a5761023b565b80631af03203116102035780631af032031461031c5780631bfa86011461033c5780632b1806461461035e5780632c03abe214610382578063338b5dea146103c25761023b565b806301eb91a6146102885780630329861d146102c557806309ad4dd9146102e757806311ebbf24146103075761023b565b3661023b57005b60405162461bcd60e51b815260206004820152601760248201527f46756e6374696f6e20646f6573206e6f7420657869737400000000000000000060448201526064015b60405180910390fd5b34801561029457600080fd5b506102a86102a3366004612874565b61079c565b6040516001600160a01b0390911681526020015b60405180910390f35b3480156102d157600080fd5b506102e56102e03660046128a9565b6107c6565b005b3480156102f357600080fd5b506102e56103023660046128cb565b610817565b34801561031357600080fd5b506102e56109ce565b34801561032857600080fd5b506102e56103373660046128a9565b610b13565b34801561034857600080fd5b50610351610bf5565b6040516102bc919061294b565b34801561036a57600080fd5b5061037460085481565b6040519081526020016102bc565b34801561038e57600080fd5b506103b261039d3660046128a9565b60026020526000908152604090205460ff1681565b60405190151581526020016102bc565b3480156103ce57600080fd5b506102e56103dd36600461295e565b610c57565b3480156103ee57600080fd5b506102e56103fd3660046128a9565b610d9f565b34801561040e57600080fd5b5061037461041d3660046128a9565b610f7c565b34801561042e57600080fd5b506102e5610fdc565b6102e561044536600461295e565b610fee565b34801561045657600080fd5b50600054600160a01b900460ff166103b2565b34801561047557600080fd5b506102a8610484366004612874565b611195565b34801561049557600080fd5b506104a96104a43660046128a9565b6111a5565b6040516102bc939291906129ce565b3480156104c457600080fd5b506103b26104d33660046128a9565b60046020526000908152604090205460ff1681565b3480156104f457600080fd5b506102e56105033660046128a9565b61125d565b34801561051457600080fd5b506102e5611307565b34801561052957600080fd5b506102e5610538366004612a1a565b611319565b34801561054957600080fd5b506102e56105583660046128a9565b6114d4565b34801561056957600080fd5b506102e5610578366004612874565b611612565b34801561058957600080fd5b506102e561059836600461295e565b611655565b3480156105a957600080fd5b506103b26105b83660046128a9565b6001600160a01b031660009081526002602052604090205460ff1690565b3480156105e257600080fd5b506102e561182a565b3480156105f757600080fd5b5061060b6106063660046128a9565b61183a565b604080516001600160a01b0390961686526020860194909452928401919091526060830152608082015260a0016102bc565b34801561064957600080fd5b506000546001600160a01b03166102a8565b34801561066757600080fd5b506102e56118c0565b34801561067c57600080fd5b5061037460075481565b34801561069257600080fd5b506102e56106a136600461295e565b611aab565b3480156106b257600080fd5b506103746106c1366004612adc565b611c75565b3480156106d257600080fd5b506106e66106e13660046128a9565b611ce0565b6040516102bc93929190612b0f565b34801561070157600080fd5b50610351611ea4565b34801561071657600080fd5b506102e5611f04565b34801561072b57600080fd5b506102e561073a366004612874565b611fe8565b34801561074b57600080fd5b506102e561075a3660046128a9565b61220e565b34801561076b57600080fd5b506102e561077a3660046128cb565b612249565b34801561078b57600080fd5b50600754610374565b6102e561249d565b600581815481106107ac57600080fd5b6000918252602090912001546001600160a01b0316905081565b6107ce612570565b6001600160a01b038116600081815260046020526040808220805460ff19169055517fe65998ab232252acfff67d27156d1322baacd0fb133e6d673d3f289de9f98f569190a250565b3360009081526004602052604090205460ff166108465760405162461bcd60e51b815260040161027f90612b70565b6001600160a01b038316600090815260026020526040902054839060ff166108805760405162461bcd60e51b815260040161027f90612ba7565b61088861259d565b600082116108d85760405162461bcd60e51b815260206004820152601d60248201527f416d6f756e74206d7573742062652067726561746572207468616e2030000000604482015260640161027f565b6001600160a01b03831660009081526003602052604090206002015460ff166109135760405162461bcd60e51b815260040161027f90612bd6565b6001600160a01b0380851660009081526001602052604090209061093b9085163330866125c8565b6001600160a01b038416600090815260028201602052604081208054859290610965908490612c19565b90915550506001600160a01b0380851660008181526003602052604090819020905191928816917f19a8047fd628ec67100f28856b1428f9e8aab57b94eba9e2c3f3a76065315636916109bf918891600101904290612c66565b60405180910390a35050505050565b6109d661259d565b3360009081526002602052604090205460ff1615610a2e5760405162461bcd60e51b815260206004820152601560248201527457616c6c657420616c72656164792065786973747360581b604482015260640161027f565b33600081815260016020818152604080842080546001600160a01b03199081168717825560038201805460ff199081168717909155426004840155828601879055600580840188905560068401889055600290955292862080549093168517909255825493840183559184527f036b6384b5eca791c62761152d0c79bb0604c104a5fb6f4eb0703f3154bb3db0909201805490921690931790556007805491610ad683612d01565b909155505060405142815233907fabfcf94e90568495ec5708d09fd3a005211d91a8f431709bfd8233f5d9ffaeeb9060200160405180910390a250565b610b1b612570565b6040516370a0823160e01b81523060048201526000906001600160a01b038316906370a0823190602401602060405180830381865afa158015610b62573d6000803e3d6000fd5b505050506040513d601f19601f82011682018060405250810190610b869190612d1a565b905060008111610bcb5760405162461bcd60e51b815260206004820152601060248201526f4e6f20746f6b656e2062616c616e636560801b604482015260640161027f565b610bf1610be06000546001600160a01b031690565b6001600160a01b0384169083612604565b5050565b60606005805480602002602001604051908101604052809291908181526020018280548015610c4d57602002820191906000526020600020905b81546001600160a01b03168152600190910190602001808311610c2f575b5050505050905090565b3360008181526002602052604090205460ff16610c865760405162461bcd60e51b815260040161027f90612ba7565b610c8e61259d565b60008211610cae5760405162461bcd60e51b815260040161027f90612d33565b6001600160a01b03831660009081526003602052604090206002015460ff16610ce95760405162461bcd60e51b815260040161027f90612bd6565b33600081815260016020526040902090610d0f906001600160a01b0386169030866125c8565b6001600160a01b038416600090815260028201602052604081208054859290610d39908490612c19565b90915550506001600160a01b03841660008181526003602052604090819020905133917f19a8047fd628ec67100f28856b1428f9e8aab57b94eba9e2c3f3a7606531563691610d919188916001909101904290612c66565b60405180910390a350505050565b3360009081526004602052604090205460ff16610dce5760405162461bcd60e51b815260040161027f90612b70565b610dd661259d565b6001600160a01b038116610e1e5760405162461bcd60e51b815260206004820152600f60248201526e496e76616c6964206164647265737360881b604482015260640161027f565b6001600160a01b03811660009081526002602052604090205460ff1615610e7f5760405162461bcd60e51b815260206004820152601560248201527457616c6c657420616c72656164792065786973747360581b604482015260640161027f565b6001600160a01b038116600081815260016020818152604080842080546001600160a01b03199081168717825560038201805460ff199081168717909155426004840155828601879055600580840188905560068401889055600290955292862080549093168517909255825493840183559184527f036b6384b5eca791c62761152d0c79bb0604c104a5fb6f4eb0703f3154bb3db0909201805490921690931790556007805491610f3083612d01565b9190505550816001600160a01b03167fabfcf94e90568495ec5708d09fd3a005211d91a8f431709bfd8233f5d9ffaeeb42604051610f7091815260200190565b60405180910390a25050565b6001600160a01b038116600090815260026020526040812054829060ff16610fb65760405162461bcd60e51b815260040161027f90612ba7565b6001600160a01b0383166000908152600160208190526040909120015491505b50919050565b610fe4612570565b610fec61263e565b565b3360009081526004602052604090205460ff1661101d5760405162461bcd60e51b815260040161027f90612b70565b6001600160a01b038216600090815260026020526040902054829060ff166110575760405162461bcd60e51b815260040161027f90612ba7565b61105f61259d565b600082116110af5760405162461bcd60e51b815260206004820152601d60248201527f416d6f756e74206d7573742062652067726561746572207468616e2030000000604482015260640161027f565b8134146110fe5760405162461bcd60e51b815260206004820152601c60248201527f53656e742076616c7565206d757374206d6174636820616d6f756e7400000000604482015260640161027f565b6001600160a01b0383166000908152600160208190526040822090810180549192859261112c908490612c19565b92505081905550828160050160008282546111479190612c19565b9091555050604080518481524260208201526001600160a01b038616917ff8f8cf3e76e5d51b9f0bbb45d58d35e37ab504dfefc6dbcca3549075aeafac8b910160405180910390a250505050565b600681815481106107ac57600080fd5b600360205260009081526040902080546001820180546001600160a01b0390921692916111d190612c32565b80601f01602080910402602001604051908101604052809291908181526020018280546111fd90612c32565b801561124a5780601f1061121f5761010080835404028352916020019161124a565b820191906000526020600020905b81548152906001019060200180831161122d57829003601f168201915b5050506002909301549192505060ff1683565b611265612570565b6001600160a01b0381166112bb5760405162461bcd60e51b815260206004820152601860248201527f496e76616c696420706c6174666f726d20616464726573730000000000000000604482015260640161027f565b6001600160a01b038116600081815260046020526040808220805460ff19166001179055517f52b72a43d1ab9dceb8c194ab3aad9debe109c983989a1853736e76a5f40f42e79190a250565b61130f612570565b610fec6000612693565b611321612570565b6001600160a01b03821661136f5760405162461bcd60e51b8152602060048201526015602482015274496e76616c696420746f6b656e206164647265737360581b604482015260640161027f565b6001600160a01b03821660009081526003602052604090206002015460ff16156113db5760405162461bcd60e51b815260206004820152601760248201527f546f6b656e20616c726561647920737570706f72746564000000000000000000604482015260640161027f565b604080516060810182526001600160a01b03848116808352602080840186815260018587018190526000938452600390925294909120835181546001600160a01b03191693169290921782559251919290919082019061143b9082612dc6565b50604091820151600291909101805460ff1916911515919091179055600680546001810182556000919091527ff652222313e28459528d920b65115c16c04f3efc82aaedc97be59f3f377c0d3f0180546001600160a01b0319166001600160a01b03851690811790915590517f7afee0f1b802cc0f66c67890e26b4566251859cf2cd8de79b86aed7251d9756a90610f70908490612e86565b6114dc612570565b6001600160a01b03811660009081526003602052604090206002015460ff166115175760405162461bcd60e51b815260040161027f90612bd6565b6001600160a01b0381166000908152600360205260408120600101805461153d90612c32565b80601f016020809104026020016040519081016040528092919081815260200182805461156990612c32565b80156115b65780601f1061158b576101008083540402835291602001916115b6565b820191906000526020600020905b81548152906001019060200180831161159957829003601f168201915b5050506001600160a01b03851660008181526003602052604090819020600201805460ff1916905551939450927f617a625823f687a1440db57ae598a2ba91f2c2d180bb2adc78e5fbfed162ca339250610f7091508490612e86565b61161a612570565b60088190556040518181527f86feb7e9e55e3895814f7156f908a5474d2c2fac3d1637debfddecb85a7ff23d9060200160405180910390a150565b3360008181526002602052604090205460ff166116845760405162461bcd60e51b815260040161027f90612ba7565b6001600160a01b038316600090815260026020526040902054839060ff166116be5760405162461bcd60e51b815260040161027f90612ba7565b6116c661259d565b600083116116e65760405162461bcd60e51b815260040161027f90612e99565b336001600160a01b038516036117385760405162461bcd60e51b815260206004820152601760248201527621b0b73737ba103a3930b739b332b9103a379039b2b63360491b604482015260640161027f565b3360009081526001602081905260408083206001600160a01b03881684529220908201548511156117a25760405162461bcd60e51b8152602060048201526014602482015273496e73756666696369656e742062616c616e636560601b604482015260640161027f565b848260010160008282546117b69190612edf565b92505081905550848160010160008282546117d19190612c19565b90915550506040805186815260006020820152428183015290516001600160a01b0388169133917f096084efb7dc7c85c821380da223b8c19f1e1bb73734ed2e628ed78d4b1eb6809181900360600190a3505050505050565b611832612570565b610fec6126e3565b6001600160a01b0381166000908152600260205260408120548190819081908190869060ff1661187c5760405162461bcd60e51b815260040161027f90612ba7565b505050506001600160a01b03928316600090815260016020819052604090912080549181015460048201546005830154600690930154939096169690959450909250565b6118c8612726565b3360008181526002602052604090205460ff166118f75760405162461bcd60e51b815260040161027f90612ba7565b6118ff61259d565b33600090815260016020819052604090912090810154806119535760405162461bcd60e51b815260206004820152600e60248201526d4e6f204554482062616c616e636560901b604482015260640161027f565b6008548110156119a55760405162461bcd60e51b815260206004820152601f60248201527f42656c6f77206d696e696d756d207769746864726177616c20616d6f756e7400604482015260640161027f565b60008260010181905550808260060160008282546119c39190612c19565b9091555050604051600090339083908381818185875af1925050503d8060008114611a0a576040519150601f19603f3d011682016040523d82523d6000602084013e611a0f565b606091505b5050905080611a565760405162461bcd60e51b8152602060048201526013602482015272115512081d1c985b9cd9995c8819985a5b1959606a1b604482015260640161027f565b6040805183815242602082015233917f3d654224b51a067d3051982f01da5cc4b939951c1707538ba045408b15774835910160405180910390a250505050610fec6001600080516020612f5183398151915255565b611ab3612726565b3360008181526002602052604090205460ff16611ae25760405162461bcd60e51b815260040161027f90612ba7565b611aea61259d565b60008211611b0a5760405162461bcd60e51b815260040161027f90612ef2565b6001600160a01b03831660009081526003602052604090206002015460ff16611b455760405162461bcd60e51b815260040161027f90612bd6565b3360009081526001602090815260408083206001600160a01b03871684526002810190925290912054831115611bbd5760405162461bcd60e51b815260206004820152601a60248201527f496e73756666696369656e7420746f6b656e2062616c616e6365000000000000604482015260640161027f565b6001600160a01b038416600090815260028201602052604081208054859290611be7908490612edf565b90915550611c0190506001600160a01b0385163385612604565b6001600160a01b03841660008181526003602052604090819020905133917f06454b12bae6801a1f0bb4067e4ccf183f770b19b0f6f002f9ca0cfed3fb1c5991611c549188916001909101904290612c66565b60405180910390a35050610bf16001600080516020612f5183398151915255565b6001600160a01b038216600090815260026020526040812054839060ff16611caf5760405162461bcd60e51b815260040161027f90612ba7565b50506001600160a01b0391821660009081526001602090815260408083209390941682526002909201909152205490565b6001600160a01b0381166000908152600260205260408120546060908190849060ff16611d1f5760405162461bcd60e51b815260040161027f90612ba7565b6001600160a01b0385166000908152600160208190526040909120908101546006549095508067ffffffffffffffff811115611d5d57611d5d612a04565b604051908082528060200260200182016040528015611d86578160200160208202803683370190505b5094508067ffffffffffffffff811115611da257611da2612a04565b604051908082528060200260200182016040528015611dcb578160200160208202803683370190505b50935060005b81811015611e9957600060068281548110611dee57611dee612f3a565b9060005260206000200160009054906101000a90046001600160a01b0316905080868381518110611e2157611e21612f3a565b60200260200101906001600160a01b031690816001600160a01b031681525050836002016000826001600160a01b03166001600160a01b0316815260200190815260200160002054878381518110611e7b57611e7b612f3a565b60209081029190910101525080611e9181612d01565b915050611dd1565b505050509193909250565b60606006805480602002602001604051908101604052809291908181526020018280548015610c4d576020028201919060005260206000209081546001600160a01b03168152600190910190602001808311610c2f575050505050905090565b611f0c612570565b4780611f535760405162461bcd60e51b81526020600482015260166024820152754e6f2062616c616e636520746f20776974686472617760501b604482015260640161027f565b600080546040516001600160a01b039091169083908381818185875af1925050503d8060008114611fa0576040519150601f19603f3d011682016040523d82523d6000602084013e611fa5565b606091505b5050905080610bf15760405162461bcd60e51b815260206004820152600f60248201526e151c985b9cd9995c8819985a5b1959608a1b604482015260640161027f565b611ff0612726565b3360008181526002602052604090205460ff1661201f5760405162461bcd60e51b815260040161027f90612ba7565b61202761259d565b600082116120475760405162461bcd60e51b815260040161027f90612ef2565b6008548210156120995760405162461bcd60e51b815260206004820152601f60248201527f42656c6f77206d696e696d756d207769746864726177616c20616d6f756e7400604482015260640161027f565b336000908152600160208190526040909120908101548311156120f55760405162461bcd60e51b8152602060048201526014602482015273496e73756666696369656e742062616c616e636560601b604482015260640161027f565b828160010160008282546121099190612edf565b92505081905550828160060160008282546121249190612c19565b9091555050604051600090339085908381818185875af1925050503d806000811461216b576040519150601f19603f3d011682016040523d82523d6000602084013e612170565b606091505b50509050806121b75760405162461bcd60e51b8152602060048201526013602482015272115512081d1c985b9cd9995c8819985a5b1959606a1b604482015260640161027f565b6040805185815242602082015233917f3d654224b51a067d3051982f01da5cc4b939951c1707538ba045408b15774835910160405180910390a250505061220b6001600080516020612f5183398151915255565b50565b612216612570565b6001600160a01b03811661224057604051631e4fbdf760e01b81526000600482015260240161027f565b61220b81612693565b3360008181526002602052604090205460ff166122785760405162461bcd60e51b815260040161027f90612ba7565b6001600160a01b038416600090815260026020526040902054849060ff166122b25760405162461bcd60e51b815260040161027f90612ba7565b6122ba61259d565b600083116122da5760405162461bcd60e51b815260040161027f90612e99565b336001600160a01b0386160361232c5760405162461bcd60e51b815260206004820152601760248201527621b0b73737ba103a3930b739b332b9103a379039b2b63360491b604482015260640161027f565b6001600160a01b03841660009081526003602052604090206002015460ff166123675760405162461bcd60e51b815260040161027f90612bd6565b3360009081526001602090815260408083206001600160a01b0389811685528285209089168552600282019093529220548511156123e75760405162461bcd60e51b815260206004820152601a60248201527f496e73756666696369656e7420746f6b656e2062616c616e6365000000000000604482015260640161027f565b6001600160a01b038616600090815260028301602052604081208054879290612411908490612edf565b90915550506001600160a01b038616600090815260028201602052604081208054879290612440908490612c19565b9091555050604080518681526001600160a01b038881166020830152428284015291519189169133917f096084efb7dc7c85c821380da223b8c19f1e1bb73734ed2e628ed78d4b1eb680919081900360600190a350505050505050565b3360008181526002602052604090205460ff166124cc5760405162461bcd60e51b815260040161027f90612ba7565b6124d461259d565b600034116124f45760405162461bcd60e51b815260040161027f90612d33565b3360009081526001602081905260408220908101805491923492612519908490612c19565b92505081905550348160050160008282546125349190612c19565b90915550506040805134815242602082015233917ff8f8cf3e76e5d51b9f0bbb45d58d35e37ab504dfefc6dbcca3549075aeafac8b9101610f70565b6000546001600160a01b03163314610fec5760405163118cdaa760e01b815233600482015260240161027f565b600054600160a01b900460ff1615610fec5760405163d93c066560e01b815260040160405180910390fd5b6125d6848484846001612742565b6125fe57604051635274afe760e01b81526001600160a01b038516600482015260240161027f565b50505050565b61261183838360016127b4565b61263957604051635274afe760e01b81526001600160a01b038416600482015260240161027f565b505050565b61264661281a565b6000805460ff60a01b191690557f5db9ee0a495bf2e6ff9c91a7834c1ba4fdd244a5e8aa4e537bd38aeae4b073aa335b6040516001600160a01b03909116815260200160405180910390a1565b600080546001600160a01b038381166001600160a01b0319831681178455604051919092169283917f8be0079c531659141344cd1fd0a4f28419497f9722a3daafe3b4186f6b6457e09190a35050565b6126eb61259d565b6000805460ff60a01b1916600160a01b1790557f62e78cea01bee320cd4e420270b5ea74000d11b0c9f74754ebdbfc544b05a2586126763390565b61272e612844565b6002600080516020612f5183398151915255565b6040516323b872dd60e01b60008181526001600160a01b038781166004528616602452604485905291602083606481808c5af1925060016000511483166127a2578383151615612795573d6000823e3d81fd5b6000883b113d1516831692505b60405250600060605295945050505050565b60405163a9059cbb60e01b60008181526001600160a01b038616600452602485905291602083604481808b5af19250600160005114831661280e578383151615612801573d6000823e3d81fd5b6000873b113d1516831692505b60405250949350505050565b600054600160a01b900460ff16610fec57604051638dfc202b60e01b815260040160405180910390fd5b600080516020612f5183398151915254600203610fec57604051633ee5aeb560e01b815260040160405180910390fd5b60006020828403121561288657600080fd5b5035919050565b80356001600160a01b03811681146128a457600080fd5b919050565b6000602082840312156128bb57600080fd5b6128c48261288d565b9392505050565b6000806000606084860312156128e057600080fd5b6128e98461288d565b92506128f76020850161288d565b9150604084013590509250925092565b600081518084526020808501945080840160005b838110156129405781516001600160a01b03168752958201959082019060010161291b565b509495945050505050565b6020815260006128c46020830184612907565b6000806040838503121561297157600080fd5b61297a8361288d565b946020939093013593505050565b6000815180845260005b818110156129ae57602081850181015186830182015201612992565b506000602082860101526020601f19601f83011685010191505092915050565b6001600160a01b03841681526060602082018190526000906129f290830185612988565b90508215156040830152949350505050565b634e487b7160e01b600052604160045260246000fd5b60008060408385031215612a2d57600080fd5b612a368361288d565b9150602083013567ffffffffffffffff80821115612a5357600080fd5b818501915085601f830112612a6757600080fd5b813581811115612a7957612a79612a04565b604051601f8201601f19908116603f01168101908382118183101715612aa157612aa1612a04565b81604052828152886020848701011115612aba57600080fd5b8260208601602083013760006020848301015280955050505050509250929050565b60008060408385031215612aef57600080fd5b612af88361288d565b9150612b066020840161288d565b90509250929050565b6000606082018583526020606081850152818651808452608086019150828801935060005b81811015612b5057845183529383019391830191600101612b34565b50508481036040860152612b648187612907565b98975050505050505050565b60208082526017908201527f4e6f7420617574686f72697a656420706c6174666f726d000000000000000000604082015260600190565b60208082526015908201527415d85b1b195d08191bd95cc81b9bdd08195e1a5cdd605a1b604082015260600190565b602080825260139082015272151bdad95b881b9bdd081cdd5c1c1bdc9d1959606a1b604082015260600190565b634e487b7160e01b600052601160045260246000fd5b80820180821115612c2c57612c2c612c03565b92915050565b600181811c90821680612c4657607f821691505b602082108103610fd657634e487b7160e01b600052602260045260246000fd5b8381526000602060608184015260008554612c8081612c32565b8060608701526080600180841660008114612ca25760018114612cbc57612cea565b60ff1985168984015283151560051b890183019550612cea565b8a6000528660002060005b85811015612ce25781548b8201860152908301908801612cc7565b8a0184019650505b505050505060409390930193909352509392505050565b600060018201612d1357612d13612c03565b5060010190565b600060208284031215612d2c57600080fd5b5051919050565b60208082526025908201527f4465706f73697420616d6f756e74206d75737420626520677265617465722074604082015264068616e20360dc1b606082015260800190565b601f82111561263957600081815260208120601f850160051c81016020861015612d9f5750805b601f850160051c820191505b81811015612dbe57828155600101612dab565b505050505050565b815167ffffffffffffffff811115612de057612de0612a04565b612df481612dee8454612c32565b84612d78565b602080601f831160018114612e295760008415612e115750858301515b600019600386901b1c1916600185901b178555612dbe565b600085815260208120601f198616915b82811015612e5857888601518255948401946001909101908401612e39565b5085821015612e765787850151600019600388901b60f8161c191681555b5050505050600190811b01905550565b6020815260006128c46020830184612988565b60208082526026908201527f5472616e7366657220616d6f756e74206d75737420626520677265617465722060408201526507468616e20360d41b606082015260800190565b81810381811115612c2c57612c2c612c03565b60208082526028908201527f5769746864726177616c20616d6f756e74206d75737420626520677265617465604082015267072207468616e20360c41b606082015260800190565b634e487b7160e01b600052603260045260246000fdfe9b779b17422d0df92223018b32b4d1fa46e071723d6817e2486d003becc55f00a2646970667358221220cb510c1c7947ba1c8f2e6f802e85572db56969ca6249e9c83de003096854ec5964736f6c63430008140033",
  "linkReferences": {},
  "deployedLinkReferences": {}
}