{
  "_format": "hh-sol-artifact-1",
  "contractName": "KimuXCommissionSystem",
  "sourceName": "contracts/KimuntuXCommissionSystem.sol",
  "abi": [
    {
      "inputs": [],
      "stateMutability": "nonpayable",
      "type": "constructor"
    },
    {
      "inputs": [],
      "name": "EnforcedPause",
      "type": "error"
    },
    {
      "inputs": [],
      "name": "ExpectedPause",
      "type": "error"
    },
    {
      "inputs": [
        {
          "internalType": "address",
          "name": "owner",
          "type": "address"
        }
      ],
      "name": "OwnableInvalidOwner",
      "type": "error"
    },
    {
      "inputs": [
        {
          "internalType": "address",
          "name": "account",
          "type": "address"
        }
      ],
      "name": "OwnableUnauthorizedAccount",
      "type": "error"
    },
    {
      "inputs": [],
      "name": "ReentrancyGuardReentrantCall",
      "type": "error"
    },
    {
      "anonymous": false,
      "inputs": [
        {
          "indexed": true,
          "internalType": "address",
          "name": "affiliate",
          "type": "address"
        },
        {
          "indexed": false,
          "internalType": "uint256",
          "name": "timestamp",
          "type": "uint256"
        }
      ],
      "name": "AffiliateRegistered",
      "type": "event"
    },
    {
      "anonymous": false,
      "inputs": [
        {
          "indexed": true,
          "internalType": "address",
          "name": "affiliate",
          "type": "address"
        },
        {
          "indexed": false,
          "internalType": "uint256",
          "name": "amount",
          "type": "uint256"
        }
      ],
      "name": "CommissionApproved",
      "type": "event"
    },
    {
      "anonymous": false,
      "inputs": [
        {
          "indexed": true,
          "internalType": "address",
          "name": "affiliate",
          "type": "address"
        },
        {
          "indexed": false,
          "internalType": "string",
          "name": "transactionId",
          "type": "string"
        }
      ],
      "name": "CommissionDisputed",
      "type": "event"
    },
    {
      "anonymous": false,
      "inputs": [
        {
          "indexed": true,
          "internalType": "address",
          "name": "affiliate",
          "type": "address"
        },
        {
          "indexed": false,
          "internalType": "uint256",
          "name": "amount",
          "type": "uint256"
        }
      ],
      "name": "CommissionPaid",
      "type": "event"
    },
    {
      "anonymous": false,
      "inputs": [
        {
          "indexed": true,
          "internalType": "address",
          "name": "affiliate",
          "type": "address"
        },
        {
          "indexed": false,
          "internalType": "uint256",
          "name": "amount",
          "type": "uint256"
        },
        {
          "indexed": false,
          "internalType": "string",
          "name": "transactionId",
          "type": "string"
        }
      ],
      "name": "CommissionRecorded",
      "type": "event"
    },
    {
      "anonymous": false,
      "inputs": [
        {
          "indexed": true,
          "internalType": "address",
          "name": "merchant",
          "type": "address"
        },
        {
          "indexed": false,
          "internalType": "bool",
          "name": "status",
          "type": "bool"
        }
      ],
      "name": "MerchantAuthorized",
      "type": "event"
    },
    {
      "anonymous": false,
      "inputs": [
        {
          "indexed": true,
          "internalType": "address",
          "name": "previousOwner",
          "type": "address"
        },
        {
          "indexed": true,
          "internalType": "address",
          "name": "newOwner",
          "type": "address"
        }
      ],
      "name": "OwnershipTransferred",
      "type": "event"
    },
    {
      "anonymous": false,
      "inputs": [
        {
          "indexed": false,
          "internalType": "address",
          "name": "account",
          "type": "address"
        }
      ],
      "name": "Paused",
      "type": "event"
    },
    {
      "anonymous": false,
      "inputs": [
        {
          "indexed": false,
          "internalType": "address",
          "name": "account",
          "type": "address"
        }
      ],
      "name": "Unpaused",
      "type": "event"
    },
    {
      "inputs": [
        {
          "internalType": "address",
          "name": "_affiliate",
          "type": "address"
        },
        {
          "internalType": "uint256",
          "name": "_commissionIndex",
          "type": "uint256"
        }
      ],
      "name": "approveCommission",
      "outputs": [],
      "stateMutability": "nonpayable",
      "type": "function"
    },
    {
      "inputs": [
        {
          "internalType": "address",
          "name": "_merchant",
          "type": "address"
        },
        {
          "internalType": "bool",
          "name": "_status",
          "type": "bool"
        }
      ],
      "name": "authorizeMerchant",
      "outputs": [],
      "stateMutability": "nonpayable",
      "type": "function"
    },
    {
      "inputs": [
        {
          "internalType": "address",
          "name": "",
          "type": "address"
        }
      ],
      "name": "authorizedMerchants",
      "outputs": [
        {
          "internalType": "bool",
          "name": "",
          "type": "bool"
        }
      ],
      "stateMutability": "view",
      "type": "function"
    },
    {
      "inputs": [
        {
          "internalType": "address",
          "name": "_affiliate",
          "type": "address"
        },
        {
          "internalType": "string",
          "name": "_transactionId",
          "type": "string"
        }
      ],
      "name": "autoApprove",
      "outputs": [],
      "stateMutability": "nonpayable",
      "type": "function"
    },
    {
      "inputs": [
        {
          "internalType": "address",
          "name": "",
          "type": "address"
        }
      ],
      "name": "balances",
      "outputs": [
        {
          "internalType": "uint256",
          "name": "",
          "type": "uint256"
        }
      ],
      "stateMutability": "view",
      "type": "function"
    },
    {
      "inputs": [
        {
          "internalType": "address",
          "name": "",
          "type": "address"
        },
        {
          "internalType": "uint256",
          "name": "",
          "type": "uint256"
        }
      ],
      "name": "commissions",
      "outputs": [
        {
          "internalType": "address",
          "name": "affiliate",
          "type": "address"
        },
        {
          "internalType": "uint256",
          "name": "amount",
          "type": "uint256"
        },
        {
          "internalType": "uint256",
          "name": "timestamp",
          "type": "uint256"
        },
        {
          "internalType": "string",
          "name": "transactionId",
          "type": "string"
        },
        {
          "internalType": "enum KimuXCommissionSystem.CommissionStatus",
          "name": "status",
          "type": "uint8"
        }
      ],
      "stateMutability": "view",
      "type": "function"
    },
    {
      "inputs": [
        {
          "internalType": "address",
          "name": "_affiliate",
          "type": "address"
        }
      ],
      "name": "getAllCommissions",
      "outputs": [
        {
          "components": [
            {
              "internalType": "address",
              "name": "affiliate",
              "type": "address"
            },
            {
              "internalType": "uint256",
              "name": "amount",
              "type": "uint256"
            },
            {
              "internalType": "uint256",
              "name": "timestamp",
              "type": "uint256"
            },
            {
              "internalType": "string",
              "name": "transactionId",
              "type": "string"
            },
            {
              "internalType": "enum KimuXCommissionSystem.CommissionStatus",
              "name": "status",
              "type": "uint8"
            }
          ],
          "internalType": "struct KimuXCommissionSystem.Commission[]",
          "name": "",
          "type": "tuple[]"
        }
      ],
      "stateMutability": "view",
      "type": "function"
    },
    {
      "inputs": [
        {
          "internalType": "address",
          "name": "_affiliate",
          "type": "address"
        }
      ],
      "name": "getBalance",
      "outputs": [
        {
          "internalType": "uint256",
          "name": "",
          "type": "uint256"
        }
      ],
      "stateMutability": "view",
      "type": "function"
    },
    {
      "inputs": [
        {
          "internalType": "address",
          "name": "_affiliate",
          "type": "address"
        },
        {
          "internalType": "uint256",
          "name": "_index",
          "type": "uint256"
        }
      ],
      "name": "getCommission",
      "outputs": [
        {
          "internalType": "uint256",
          "name": "amount",
          "type": "uint256"
        },
        {
          "internalType": "uint256",
          "name": "timestamp",
          "type": "uint256"
        },
        {
          "internalType": "string",
          "name": "transactionId",
          "type": "string"
        },
        {
          "internalType": "enum KimuXCommissionSystem.CommissionStatus",
          "name": "status",
          "type": "uint8"
        }
      ],
      "stateMutability": "view",
      "type": "function"
    },
    {
      "inputs": [
        {
          "internalType": "address",
          "name": "_affiliate",
          "type": "address"
        }
      ],
      "name": "getCommissionCount",
      "outputs": [
        {
          "internalType": "uint256",
          "name": "",
          "type": "uint256"
        }
      ],
      "stateMutability": "view",
      "type": "function"
    },
    {
      "inputs": [],
      "name": "getContractStats",
      "outputs": [
        {
          "internalType": "uint256",
          "name": "contractBalance",
          "type": "uint256"
        },
        {
          "internalType": "uint256",
          "name": "totalPaid",
          "type": "uint256"
        },
        {
          "internalType": "uint256",
          "name": "feeRate",
          "type": "uint256"
        },
        {
          "internalType": "uint256",
          "name": "minPayout",
          "type": "uint256"
        }
      ],
      "stateMutability": "view",
      "type": "function"
    },
    {
      "inputs": [
        {
          "internalType": "address",
          "name": "_address",
          "type": "address"
        }
      ],
      "name": "isAffiliate",
      "outputs": [
        {
          "internalType": "bool",
          "name": "",
          "type": "bool"
        }
      ],
      "stateMutability": "view",
      "type": "function"
    },
    {
      "inputs": [
        {
          "internalType": "address",
          "name": "_address",
          "type": "address"
        }
      ],
      "name": "isMerchant",
      "outputs": [
        {
          "internalType": "bool",
          "name": "",
          "type": "bool"
        }
      ],
      "stateMutability": "view",
      "type": "function"
    },
    {
      "inputs": [],
      "name": "minimumPayout",
      "outputs": [
        {
          "internalType": "uint256",
          "name": "",
          "type": "uint256"
        }
      ],
      "stateMutability": "view",
      "type": "function"
    },
    {
      "inputs": [],
      "name": "owner",
      "outputs": [
        {
          "internalType": "address",
          "name": "",
          "type": "address"
        }
      ],
      "stateMutability": "view",
      "type": "function"
    },
    {
      "inputs": [],
      "name": "pause",
      "outputs": [],
      "stateMutability": "nonpayable",
      "type": "function"
    },
    {
      "inputs": [],
      "name": "paused",
      "outputs": [
        {
          "internalType": "bool",
          "name": "",
          "type": "bool"
        }
      ],
      "stateMutability": "view",
      "type": "function"
    },
    {
      "inputs": [],
      "name": "platformFeeRate",
      "outputs": [
        {
          "internalType": "uint256",
          "name": "",
          "type": "uint256"
        }
      ],
      "stateMutability": "view",
      "type": "function"
    },
    {
      "inputs": [
        {
          "internalType": "string",
          "name": "",
          "type": "string"
        }
      ],
      "name": "processedTransactions",
      "outputs": [
        {
          "internalType": "bool",
          "name": "",
          "type": "bool"
        }
      ],
      "stateMutability": "view",
      "type": "function"
    },
    {
      "inputs": [
        {
          "internalType": "address",
          "name": "_affiliate",
          "type": "address"
        },
        {
          "internalType": "uint256",
          "name": "_saleAmount",
          "type": "uint256"
        },
        {
          "internalType": "uint256",
          "name": "_commissionRate",
          "type": "uint256"
        },
        {
          "internalType": "string",
          "name": "_transactionId",
          "type": "string"
        }
      ],
      "name": "recordCommission",
      "outputs": [],
      "stateMutability": "payable",
      "type": "function"
    },
    {
      "inputs": [
        {
          "internalType": "address",
          "name": "_affiliate",
          "type": "address"
        }
      ],
      "name": "registerAffiliate",
      "outputs": [],
      "stateMutability": "nonpayable",
      "type": "function"
    },
    {
      "inputs": [],
      "name": "registerSelf",
      "outputs": [],
      "stateMutability": "nonpayable",
      "type": "function"
    },
    {
      "inputs": [
        {
          "internalType": "address",
          "name": "",
          "type": "address"
        }
      ],
      "name": "registeredAffiliates",
      "outputs": [
        {
          "internalType": "bool",
          "name": "",
          "type": "bool"
        }
      ],
      "stateMutability": "view",
      "type": "function"
    },
    {
      "inputs": [],
      "name": "renounceOwnership",
      "outputs": [],
      "stateMutability": "nonpayable",
      "type": "function"
    },
    {
      "inputs": [
        {
          "internalType": "uint256",
          "name": "_newMinimum",
          "type": "uint256"
        }
      ],
      "name": "setMinimumPayout",
      "outputs": [],
      "stateMutability": "nonpayable",
      "type": "function"
    },
    {
      "inputs": [
        {
          "internalType": "uint256",
          "name": "_newRate",
          "type": "uint256"
        }
      ],
      "name": "setPlatformFeeRate",
      "outputs": [],
      "stateMutability": "nonpayable",
      "type": "function"
    },
    {
      "inputs": [],
      "name": "totalCommissionsPaid",
      "outputs": [
        {
          "internalType": "uint256",
          "name": "",
          "type": "uint256"
        }
      ],
      "stateMutability": "view",
      "type": "function"
    },
    {
      "inputs": [
        {
          "internalType": "address",
          "name": "newOwner",
          "type": "address"
        }
      ],
      "name": "transferOwnership",
      "outputs": [],
      "stateMutability": "nonpayable",
      "type": "function"
    },
    {
      "inputs": [],
      "name": "unpause",
      "outputs": [],
      "stateMutability": "nonpayable",
      "type": "function"
    },
    {
      "inputs": [],
      "name": "withdraw",
      "outputs": [],
      "stateMutability": "nonpayable",
      "type": "function"
    },
    {
      "inputs": [
        {
          "internalType": "uint256",
          "name": "_amount",
          "type": "uint256"
        }
      ],
      "name": "withdrawAmount",
      "outputs": [],
      "stateMutability": "nonpayable",
      "type": "function"
    },
    {
      "inputs": [],
      "name": "withdrawPlatformFees",
      "outputs": [],
      "stateMutability": "nonpayable",
      "type": "function"
    },
    {
      "stateMutability": "payable",
      "type": "receive"
    }
  ],
  "bytecode": "0x608060405261012c600755662386f26fc1000060085534801561002157600080fd5b50338061004857604051631e4fbdf760e01b81526000600482015260240160405180910390fd5b61005181610095565b5060017f9b779b17422d0df92223018b32b4d1fa46e071723d6817e2486d003becc55f0055336000908152600460205260409020805460ff191660011790556100e5565b600080546001600160a01b038381166001600160a01b0319831681178455604051919092169283917f8be0079c531659141344cd1fd0a4f28419497f9722a3daafe3b4186f6b6457e09190a35050565b6123e1806100f46000396000f3fe6080604052600436106101e75760003560e01c80638456cb5911610102578063c6d83fcf11610095578063dfe6b5d611610064578063dfe6b5d6146105fe578063eeca08f01461063b578063f2fde38b14610651578063f8b2cb4f1461067157600080fd5b8063c6d83fcf1461058e578063ca2efd38146105a4578063cbc0415d146105d4578063d0b7830b146105e957600080fd5b8063967ee121116100d1578063967ee121146104d357806399158b0c146105035780639ea3284414610533578063a902a3601461056e57600080fd5b80638456cb59146104405780638da5cb5b14610455578063927fef2e1461047d578063942eb9961461049d57600080fd5b80632c5b69eb1161017a5780634fa85186116101495780634fa85186146103b357806359695754146103ec5780635c975abb1461040c578063715018a61461042b57600080fd5b80632c5b69eb146103495780632d74a270146103765780633ccfd60b146103895780633f4ba83a1461039e57600080fd5b80631a2f7167116101b65780631a2f71671461028f5780631b00137a146102d85780631e78cfe1146102f857806327e235e31461031c57600080fd5b806301a56a7d146101f35780630562b9f71461021557806311a09bfc14610235578063141102861461025557600080fd5b366101ee57005b600080fd5b3480156101ff57600080fd5b5061021361020e366004611d5d565b6106a7565b005b34801561022157600080fd5b50610213610230366004611dab565b610905565b34801561024157600080fd5b50610213610250366004611dc4565b610b94565b34801561026157600080fd5b50610275610270366004611dc4565b610d4b565b604051610286959493929190611e76565b60405180910390f35b34801561029b57600080fd5b506102c86102aa366004611ebc565b6001600160a01b031660009081526004602052604090205460ff1690565b6040519015158152602001610286565b3480156102e457600080fd5b506102136102f3366004611ebc565b610e30565b34801561030457600080fd5b5061030e60085481565b604051908152602001610286565b34801561032857600080fd5b5061030e610337366004611ebc565b60016020526000908152604090205481565b34801561035557600080fd5b50610369610364366004611ebc565b610f3e565b6040516102869190611ede565b610213610384366004611f8b565b6110a3565b34801561039557600080fd5b5061021361143f565b3480156103aa57600080fd5b50610213611633565b3480156103bf57600080fd5b506102c86103ce366004611ebc565b6001600160a01b031660009081526005602052604090205460ff1690565b3480156103f857600080fd5b50610213610407366004611dab565b611643565b34801561041857600080fd5b50600054600160a01b900460ff166102c8565b34801561043757600080fd5b50610213611650565b34801561044c57600080fd5b50610213611662565b34801561046157600080fd5b506000546040516001600160a01b039091168152602001610286565b34801561048957600080fd5b50610213610498366004611dab565b611672565b3480156104a957600080fd5b5061030e6104b8366004611ebc565b6001600160a01b031660009081526002602052604090205490565b3480156104df57600080fd5b506104f36104ee366004611dc4565b6116ca565b6040516102869493929190611fec565b34801561050f57600080fd5b506102c861051e366004611ebc565b60056020526000908152604090205460ff1681565b34801561053f57600080fd5b506102c861054e366004612023565b805160208183018101805160038252928201919093012091525460ff1681565b34801561057a57600080fd5b50610213610589366004612060565b611898565b34801561059a57600080fd5b5061030e60065481565b3480156105b057600080fd5b506102c86105bf366004611ebc565b60046020526000908152604090205460ff1681565b3480156105e057600080fd5b506102136118ff565b3480156105f557600080fd5b506102136119aa565b34801561060a57600080fd5b5061061b6006546007546008544793565b604080519485526020850193909352918301526060820152608001610286565b34801561064757600080fd5b5061030e60075481565b34801561065d57600080fd5b5061021361066c366004611ebc565b611aad565b34801561067d57600080fd5b5061030e61068c366004611ebc565b6001600160a01b031660009081526001602052604090205490565b3360009081526004602052604090205460ff16806106cf57506000546001600160a01b031633145b6106f45760405162461bcd60e51b81526004016106eb9061209c565b60405180910390fd5b6001600160a01b0382166000908152600260205260408120905b81548110156108c5578280519060200120828281548110610731576107316120c4565b906000526020600020906005020160030160405161074f9190612114565b604051809103902014801561079d57506000828281548110610773576107736120c4565b600091825260209091206004600590920201015460ff16600381111561079b5761079b611e3e565b145b156108b35760018282815481106107b6576107b66120c4565b60009182526020909120600460059092020101805460ff191660018360038111156107e3576107e3611e3e565b02179055508181815481106107fa576107fa6120c4565b90600052602060002090600502016001015460016000866001600160a01b03166001600160a01b03168152602001908152602001600020600082825461084091906121a0565b92505081905550836001600160a01b03167f65b487109260dbc131cae2dc9a3709897a578675c3b1a594b53f680182326f8e838381548110610884576108846120c4565b9060005260206000209060050201600101546040516108a591815260200190565b60405180910390a250505050565b806108bd816121b9565b91505061070e565b5060405162461bcd60e51b815260206004820152601460248201527310dbdb5b5a5cdcda5bdb881b9bdd08199bdd5b9960621b60448201526064016106eb565b3360009081526005602052604090205460ff1661095f5760405162461bcd60e51b81526020600482015260186024820152774e6f74207265676973746572656420616666696c6961746560401b60448201526064016106eb565b610967611ae8565b61096f611b04565b600081116109b05760405162461bcd60e51b815260206004820152600e60248201526d125b9d985b1a5908185b5bdd5b9d60921b60448201526064016106eb565b6008548110156109f95760405162461bcd60e51b815260206004820152601460248201527310995b1bddc81b5a5b9a5b5d5b481c185e5bdd5d60621b60448201526064016106eb565b33600090815260016020526040902054811115610a4f5760405162461bcd60e51b8152602060048201526014602482015273496e73756666696369656e742062616c616e636560601b60448201526064016106eb565b80471015610a9f5760405162461bcd60e51b815260206004820152601d60248201527f496e73756666696369656e7420636f6e74726163742062616c616e636500000060448201526064016106eb565b3360009081526001602052604081208054839290610abe9084906121d2565b925050819055508060066000828254610ad791906121a0565b9091555050604051600090339083908381818185875af1925050503d8060008114610b1e576040519150601f19603f3d011682016040523d82523d6000602084013e610b23565b606091505b5050905080610b445760405162461bcd60e51b81526004016106eb906121e5565b60405182815233907f885e6f6235626292940f78c947a331f4c7c1d7f50a48b38092cf546bc9c7907a9060200160405180910390a250610b91600160008051602061238c83398151915255565b50565b3360009081526004602052604090205460ff1680610bbc57506000546001600160a01b031633145b610bd85760405162461bcd60e51b81526004016106eb9061209c565b6001600160a01b0382166000908152600260205260409020548110610c2f5760405162461bcd60e51b815260206004820152600d60248201526c092dcecc2d8d2c840d2dcc8caf609b1b60448201526064016106eb565b6001600160a01b0382166000908152600260205260408120805483908110610c5957610c596120c4565b6000918252602082206005909102019150600482015460ff166003811115610c8357610c83611e3e565b14610cbe5760405162461bcd60e51b815260206004820152600b60248201526a4e6f742070656e64696e6760a81b60448201526064016106eb565b60048101805460ff19166001908117909155808201546001600160a01b038516600090815260209290925260408220805491929091610cfe9084906121a0565b909155505060018101546040519081526001600160a01b038416907f65b487109260dbc131cae2dc9a3709897a578675c3b1a594b53f680182326f8e9060200160405180910390a2505050565b60026020528160005260406000208181548110610d6757600080fd5b600091825260209091206005909102018054600182015460028301546003840180546001600160a01b0390941696509194509291610da4906120da565b80601f0160208091040260200160405190810160405280929190818152602001828054610dd0906120da565b8015610e1d5780601f10610df257610100808354040283529160200191610e1d565b820191906000526020600020905b815481529060010190602001808311610e0057829003601f168201915b5050506004909301549192505060ff1685565b610e38611b2f565b6001600160a01b038116610e805760405162461bcd60e51b815260206004820152600f60248201526e496e76616c6964206164647265737360881b60448201526064016106eb565b6001600160a01b03811660009081526005602052604090205460ff1615610ede5760405162461bcd60e51b8152602060048201526012602482015271105b1c9958591e481c9959da5cdd195c995960721b60448201526064016106eb565b6001600160a01b03811660008181526005602052604090819020805460ff19166001179055517f83a511569258749eb2e26df797af663d1649aa007aaf5634258b79bbb888b9f790610f339042815260200190565b60405180910390a250565b6001600160a01b0381166000908152600260209081526040808320805482518185028101850190935280835260609492939192909184015b828210156110985760008481526020908190206040805160a0810182526005860290920180546001600160a01b03168352600181015493830193909352600283015490820152600382018054919291606084019190610fd4906120da565b80601f0160208091040260200160405190810160405280929190818152602001828054611000906120da565b801561104d5780601f106110225761010080835404028352916020019161104d565b820191906000526020600020905b81548152906001019060200180831161103057829003601f168201915b5050509183525050600482015460209091019060ff16600381111561107457611074611e3e565b600381111561108557611085611e3e565b8152505081526020019060010190610f76565b505050509050919050565b3360009081526004602052604090205460ff16806110cb57506000546001600160a01b031633145b6110e75760405162461bcd60e51b81526004016106eb9061209c565b6110ef611b04565b6001600160a01b03841660009081526005602052604090205460ff166111575760405162461bcd60e51b815260206004820152601860248201527f416666696c69617465206e6f742072656769737465726564000000000000000060448201526064016106eb565b6000831161119d5760405162461bcd60e51b8152602060048201526013602482015272125b9d985b1a59081cd85b1948185b5bdd5b9d606a1b60448201526064016106eb565b6003816040516111ad919061220e565b9081526040519081900360200190205460ff161561120d5760405162461bcd60e51b815260206004820152601d60248201527f5472616e73616374696f6e20616c72656164792070726f63657373656400000060448201526064016106eb565b600061271061121c848661222a565b6112269190612241565b905060006127106007548361123b919061222a565b6112459190612241565b9050600061125382846121d2565b90508234101561129c5760405162461bcd60e51b8152602060048201526014602482015273125b9cdd59999a58da595b9d081c185e5b595b9d60621b60448201526064016106eb565b60006040518060a00160405280896001600160a01b03168152602001838152602001428152602001868152602001600060038111156112dd576112dd611e3e565b90526001600160a01b03898116600090815260026020818152604080842080546001808201835591865294839020875160059096020180546001600160a01b031916959096169490941785559085015192840192909255908301519082015560608201519192508291600382019061135590826122b2565b50608082015160048201805460ff1916600183600381111561137957611379611e3e565b021790555050506001600386604051611392919061220e565b908152604051908190036020018120805492151560ff19909316929092179091556001600160a01b038916907fa2293559f4a69883465173f0fce65e8393fa2181b307d25d871990279e847d9b906113ed9085908990612372565b60405180910390a28334111561143557336108fc61140b86346121d2565b6040518115909202916000818181858888f19350505050158015611433573d6000803e3d6000fd5b505b5050505050505050565b3360009081526005602052604090205460ff166114995760405162461bcd60e51b81526020600482015260186024820152774e6f74207265676973746572656420616666696c6961746560401b60448201526064016106eb565b6114a1611ae8565b6114a9611b04565b336000908152600160205260409020546008548110156115025760405162461bcd60e51b815260206004820152601460248201527310995b1bddc81b5a5b9a5b5d5b481c185e5bdd5d60621b60448201526064016106eb565b804710156115525760405162461bcd60e51b815260206004820152601d60248201527f496e73756666696369656e7420636f6e74726163742062616c616e636500000060448201526064016106eb565b336000908152600160205260408120819055600680548392906115769084906121a0565b9091555050604051600090339083908381818185875af1925050503d80600081146115bd576040519150601f19603f3d011682016040523d82523d6000602084013e6115c2565b606091505b50509050806115e35760405162461bcd60e51b81526004016106eb906121e5565b60405182815233907f885e6f6235626292940f78c947a331f4c7c1d7f50a48b38092cf546bc9c7907a9060200160405180910390a25050611631600160008051602061238c83398151915255565b565b61163b611b2f565b611631611b5c565b61164b611b2f565b600855565b611658611b2f565b6116316000611bb1565b61166a611b2f565b611631611c01565b61167a611b2f565b6103e88111156116c55760405162461bcd60e51b815260206004820152601660248201527546656520746f6f206869676820286d6178203130252960501b60448201526064016106eb565b600755565b6001600160a01b0382166000908152600260205260408120548190606090829085106117285760405162461bcd60e51b815260206004820152600d60248201526c092dcecc2d8d2c840d2dcc8caf609b1b60448201526064016106eb565b6001600160a01b0386166000908152600260205260408120805487908110611752576117526120c4565b90600052602060002090600502016040518060a00160405290816000820160009054906101000a90046001600160a01b03166001600160a01b03166001600160a01b0316815260200160018201548152602001600282015481526020016003820180546117be906120da565b80601f01602080910402602001604051908101604052809291908181526020018280546117ea906120da565b80156118375780601f1061180c57610100808354040283529160200191611837565b820191906000526020600020905b81548152906001019060200180831161181a57829003601f168201915b5050509183525050600482015460209091019060ff16600381111561185e5761185e611e3e565b600381111561186f5761186f611e3e565b905250602081015160408201516060830151608090930151919a90995091975095509350505050565b6118a0611b2f565b6001600160a01b038216600081815260046020908152604091829020805460ff191685151590811790915591519182527f1088803b160c4934a9ec61e41ea7673773fb398933a93778896b7f44abf28adf910160405180910390a25050565b3360009081526005602052604090205460ff16156119545760405162461bcd60e51b8152602060048201526012602482015271105b1c9958591e481c9959da5cdd195c995960721b60448201526064016106eb565b3360008181526005602052604090819020805460ff19166001179055517f83a511569258749eb2e26df797af663d1649aa007aaf5634258b79bbb888b9f7906119a09042815260200190565b60405180910390a2565b6119b2611b2f565b6119ba611ae8565b47600081611a005760405162461bcd60e51b81526020600482015260136024820152724e6f206665657320746f20776974686472617760681b60448201526064016106eb565b6000611a0c82846121d2565b90506000611a226000546001600160a01b031690565b6001600160a01b03168260405160006040518083038185875af1925050503d8060008114611a6c576040519150601f19603f3d011682016040523d82523d6000602084013e611a71565b606091505b5050905080611a925760405162461bcd60e51b81526004016106eb906121e5565b50505050611631600160008051602061238c83398151915255565b611ab5611b2f565b6001600160a01b038116611adf57604051631e4fbdf760e01b8152600060048201526024016106eb565b610b9181611bb1565b611af0611c44565b600260008051602061238c83398151915255565b600054600160a01b900460ff16156116315760405163d93c066560e01b815260040160405180910390fd5b6000546001600160a01b031633146116315760405163118cdaa760e01b81523360048201526024016106eb565b611b64611c74565b6000805460ff60a01b191690557f5db9ee0a495bf2e6ff9c91a7834c1ba4fdd244a5e8aa4e537bd38aeae4b073aa335b6040516001600160a01b03909116815260200160405180910390a1565b600080546001600160a01b038381166001600160a01b0319831681178455604051919092169283917f8be0079c531659141344cd1fd0a4f28419497f9722a3daafe3b4186f6b6457e09190a35050565b611c09611b04565b6000805460ff60a01b1916600160a01b1790557f62e78cea01bee320cd4e420270b5ea74000d11b0c9f74754ebdbfc544b05a258611b943390565b60008051602061238c8339815191525460020361163157604051633ee5aeb560e01b815260040160405180910390fd5b600054600160a01b900460ff1661163157604051638dfc202b60e01b815260040160405180910390fd5b80356001600160a01b0381168114611cb557600080fd5b919050565b634e487b7160e01b600052604160045260246000fd5b600082601f830112611ce157600080fd5b813567ffffffffffffffff80821115611cfc57611cfc611cba565b604051601f8301601f19908116603f01168101908282118183101715611d2457611d24611cba565b81604052838152866020858801011115611d3d57600080fd5b836020870160208301376000602085830101528094505050505092915050565b60008060408385031215611d7057600080fd5b611d7983611c9e565b9150602083013567ffffffffffffffff811115611d9557600080fd5b611da185828601611cd0565b9150509250929050565b600060208284031215611dbd57600080fd5b5035919050565b60008060408385031215611dd757600080fd5b611de083611c9e565b946020939093013593505050565b60005b83811015611e09578181015183820152602001611df1565b50506000910152565b60008151808452611e2a816020860160208601611dee565b601f01601f19169290920160200192915050565b634e487b7160e01b600052602160045260246000fd5b60048110611e7257634e487b7160e01b600052602160045260246000fd5b9052565b60018060a01b038616815284602082015283604082015260a060608201526000611ea360a0830185611e12565b9050611eb26080830184611e54565b9695505050505050565b600060208284031215611ece57600080fd5b611ed782611c9e565b9392505050565b60006020808301818452808551808352604092508286019150828160051b87010184880160005b83811015611f7d57888303603f19018552815180516001600160a01b031684528781015188850152868101518785015260608082015160a08287018190529190611f5183880182611e12565b925050506080808301519250611f6981870184611e54565b509588019593505090860190600101611f05565b509098975050505050505050565b60008060008060808587031215611fa157600080fd5b611faa85611c9e565b93506020850135925060408501359150606085013567ffffffffffffffff811115611fd457600080fd5b611fe087828801611cd0565b91505092959194509250565b84815283602082015260806040820152600061200b6080830185611e12565b905061201a6060830184611e54565b95945050505050565b60006020828403121561203557600080fd5b813567ffffffffffffffff81111561204c57600080fd5b61205884828501611cd0565b949350505050565b6000806040838503121561207357600080fd5b61207c83611c9e565b91506020830135801515811461209157600080fd5b809150509250929050565b6020808252600e908201526d139bdd08185d5d1a1bdc9a5e995960921b604082015260600190565b634e487b7160e01b600052603260045260246000fd5b600181811c908216806120ee57607f821691505b60208210810361210e57634e487b7160e01b600052602260045260246000fd5b50919050565b6000808354612122816120da565b6001828116801561213a576001811461214f5761217e565b60ff198416875282151583028701945061217e565b8760005260208060002060005b858110156121755781548a82015290840190820161215c565b50505082870194505b50929695505050505050565b634e487b7160e01b600052601160045260246000fd5b808201808211156121b3576121b361218a565b92915050565b6000600182016121cb576121cb61218a565b5060010190565b818103818111156121b3576121b361218a565b6020808252600f908201526e151c985b9cd9995c8819985a5b1959608a1b604082015260600190565b60008251612220818460208701611dee565b9190910192915050565b80820281158282048414176121b3576121b361218a565b60008261225e57634e487b7160e01b600052601260045260246000fd5b500490565b601f8211156122ad57600081815260208120601f850160051c8101602086101561228a5750805b601f850160051c820191505b818110156122a957828155600101612296565b5050505b505050565b815167ffffffffffffffff8111156122cc576122cc611cba565b6122e0816122da84546120da565b84612263565b602080601f83116001811461231557600084156122fd5750858301515b600019600386901b1c1916600185901b1785556122a9565b600085815260208120601f198616915b8281101561234457888601518255948401946001909101908401612325565b50858210156123625787850151600019600388901b60f8161c191681555b5050505050600190811b01905550565b8281526040602082015260006120586040830184611e1256fe9b779b17422d0df92223018b32b4d1fa46e071723d6817e2486d003becc55f00a2646970667358221220d5f0a6a56f926360c103b14099e9c649f82d6132eb85c869e6472f3b1a8d1d1c64736f6c63430008140033",
  "linkReferences": {},
  "deployedLinkReferences": {}
}